{
  "contractName": "Mainifactors",
  "abi": [
    {
      "inputs": [],
      "payable": false,
      "stateMutability": "nonpayable",
      "type": "constructor"
    },
    {
      "constant": true,
      "inputs": [
        {
          "internalType": "uint256",
          "name": "",
          "type": "uint256"
        }
      ],
      "name": "users",
      "outputs": [
        {
          "internalType": "uint256",
          "name": "userid",
          "type": "uint256"
        },
        {
          "internalType": "bool",
          "name": "deleted",
          "type": "bool"
        },
        {
          "internalType": "string",
          "name": "username",
          "type": "string"
        },
        {
          "internalType": "string",
          "name": "password",
          "type": "string"
        },
        {
          "internalType": "string",
          "name": "name",
          "type": "string"
        }
      ],
      "payable": false,
      "stateMutability": "view",
      "type": "function"
    },
    {
      "constant": true,
      "inputs": [
        {
          "internalType": "string",
          "name": "username",
          "type": "string"
        },
        {
          "internalType": "string",
          "name": "password",
          "type": "string"
        }
      ],
      "name": "login",
      "outputs": [
        {
          "components": [
            {
              "internalType": "uint256",
              "name": "userid",
              "type": "uint256"
            },
            {
              "internalType": "bool",
              "name": "deleted",
              "type": "bool"
            },
            {
              "internalType": "string",
              "name": "username",
              "type": "string"
            },
            {
              "internalType": "string",
              "name": "password",
              "type": "string"
            },
            {
              "internalType": "string",
              "name": "name",
              "type": "string"
            }
          ],
          "internalType": "struct Mainifactors.User",
          "name": "user",
          "type": "tuple"
        }
      ],
      "payable": false,
      "stateMutability": "view",
      "type": "function"
    },
    {
      "constant": false,
      "inputs": [
        {
          "internalType": "string",
          "name": "username",
          "type": "string"
        },
        {
          "internalType": "string",
          "name": "password",
          "type": "string"
        },
        {
          "internalType": "string",
          "name": "name",
          "type": "string"
        }
      ],
      "name": "regiter",
      "outputs": [],
      "payable": false,
      "stateMutability": "nonpayable",
      "type": "function"
    }
  ],
  "bytecode": "0x60806040523480156200001157600080fd5b50600080805490501415620001a95760006040518060a00160405280600081526020016000151581526020016040518060400160405280600581526020017f61646d696e00000000000000000000000000000000000000000000000000000081525081526020016040518060400160405280600581526020017f61646d696e00000000000000000000000000000000000000000000000000000081525081526020016040518060400160405280600481526020017f6e756c6c00000000000000000000000000000000000000000000000000000000815250815250908060018154018082558091505090600182039060005260206000209060050201600090919290919091506000820151816000015560208201518160010160006101000a81548160ff02191690831515021790555060408201518160020190805190602001906200015f929190620001af565b5060608201518160030190805190602001906200017e929190620001af565b5060808201518160040190805190602001906200019d929190620001af565b50505050600180819055505b6200025e565b828054600181600116156101000203166002900490600052602060002090601f016020900481019282601f10620001f257805160ff191683800117855562000223565b8280016001018555821562000223579182015b828111156200022257825182559160200191906001019062000205565b5b50905062000232919062000236565b5090565b6200025b91905b80821115620002575760008160009055506001016200023d565b5090565b90565b610f00806200026e6000396000f3fe608060405234801561001057600080fd5b50600436106100415760003560e01c8063365b98b21461004657806358467dbc1461007a578063a8a8492f146100aa575b600080fd5b610060600480360361005b9190810190610aba565b6100c6565b604051610071959493929190610d24565b60405180910390f35b610094600480360361008f91908101906109b7565b6102de565b6040516100a19190610d02565b60405180910390f35b6100c460048036036100bf9190810190610a23565b61075d565b005b600081815481106100d357fe5b90600052602060002090600502016000915090508060000154908060010160009054906101000a900460ff1690806002018054600181600116156101000203166002900480601f0160208091040260200160405190810160405280929190818152602001828054600181600116156101000203166002900480156101985780601f1061016d57610100808354040283529160200191610198565b820191906000526020600020905b81548152906001019060200180831161017b57829003601f168201915b505050505090806003018054600181600116156101000203166002900480601f0160208091040260200160405190810160405280929190818152602001828054600181600116156101000203166002900480156102365780601f1061020b57610100808354040283529160200191610236565b820191906000526020600020905b81548152906001019060200180831161021957829003601f168201915b505050505090806004018054600181600116156101000203166002900480601f0160208091040260200160405190810160405280929190818152602001828054600181600116156101000203166002900480156102d45780601f106102a9576101008083540402835291602001916102d4565b820191906000526020600020905b8154815290600101906020018083116102b757829003601f168201915b5050505050905085565b6102e6610878565b600080905060008090505b600080549050811015610675578460405160200161030f9190610cd4565b6040516020818303038152906040528051906020012060001c6000828154811061033557fe5b90600052602060002090600502016002016040516020016103569190610ceb565b6040516020818303038152906040528051906020012060001c1480156103ea5750836040516020016103889190610cd4565b6040516020818303038152906040528051906020012060001c600082815481106103ae57fe5b90600052602060002090600502016003016040516020016103cf9190610ceb565b6040516020818303038152906040528051906020012060001c145b80156104255750600015156000828154811061040257fe5b906000526020600020906005020160010160009054906101000a900460ff161515145b1561066857600191506000818154811061043b57fe5b90600052602060002090600502016040518060a0016040529081600082015481526020016001820160009054906101000a900460ff16151515158152602001600282018054600181600116156101000203166002900480601f0160208091040260200160405190810160405280929190818152602001828054600181600116156101000203166002900480156105125780601f106104e757610100808354040283529160200191610512565b820191906000526020600020905b8154815290600101906020018083116104f557829003601f168201915b50505050508152602001600382018054600181600116156101000203166002900480601f0160208091040260200160405190810160405280929190818152602001828054600181600116156101000203166002900480156105b45780601f10610589576101008083540402835291602001916105b4565b820191906000526020600020905b81548152906001019060200180831161059757829003601f168201915b50505050508152602001600482018054600181600116156101000203166002900480601f0160208091040260200160405190810160405280929190818152602001828054600181600116156101000203166002900480156106565780601f1061062b57610100808354040283529160200191610656565b820191906000526020600020905b81548152906001019060200180831161063957829003601f168201915b50505050508152505092505050610757565b80806001019150506102f1565b50600015158115151415610755576040518060a00160405280600081526020016001151581526020016040518060400160405280600481526020017f6e756c6c0000000000000000000000000000000000000000000000000000000081525081526020016040518060400160405280600481526020017f6e756c6c0000000000000000000000000000000000000000000000000000000081525081526020016040518060400160405280600481526020017f6e756c6c00000000000000000000000000000000000000000000000000000000815250815250915050610757565b505b92915050565b610765610878565b61076f84846102de565b9050600115158160200151151514156108725760006040518060a00160405280600154815260200160001515815260200186815260200185815260200184815250908060018154018082558091505090600182039060005260206000209060050201600090919290919091506000820151816000015560208201518160010160006101000a81548160ff02191690831515021790555060408201518160020190805190602001906108219291906108a9565b50606082015181600301908051906020019061083e9291906108a9565b50608082015181600401908051906020019061085b9291906108a9565b505050506001600081548092919060010191905055505b50505050565b6040518060a00160405280600081526020016000151581526020016060815260200160608152602001606081525090565b828054600181600116156101000203166002900490600052602060002090601f016020900481019282601f106108ea57805160ff1916838001178555610918565b82800160010185558215610918579182015b828111156109175782518255916020019190600101906108fc565b5b5090506109259190610929565b5090565b61094b91905b8082111561094757600081600090555060010161092f565b5090565b90565b600082601f83011261095f57600080fd5b813561097261096d82610db9565b610d8c565b9150808252602083016020830185838301111561098e57600080fd5b610999838284610e53565b50505092915050565b6000813590506109b181610ea6565b92915050565b600080604083850312156109ca57600080fd5b600083013567ffffffffffffffff8111156109e457600080fd5b6109f08582860161094e565b925050602083013567ffffffffffffffff811115610a0d57600080fd5b610a198582860161094e565b9150509250929050565b600080600060608486031215610a3857600080fd5b600084013567ffffffffffffffff811115610a5257600080fd5b610a5e8682870161094e565b935050602084013567ffffffffffffffff811115610a7b57600080fd5b610a878682870161094e565b925050604084013567ffffffffffffffff811115610aa457600080fd5b610ab08682870161094e565b9150509250925092565b600060208284031215610acc57600080fd5b6000610ada848285016109a2565b91505092915050565b610aec81610e3d565b82525050565b610afb81610e3d565b82525050565b6000610b0c82610e05565b610b168185610e32565b9350610b26818560208601610e62565b80840191505092915050565b6000610b3d82610dfa565b610b478185610e10565b9350610b57818560208601610e62565b610b6081610e95565b840191505092915050565b6000610b7682610dfa565b610b808185610e21565b9350610b90818560208601610e62565b610b9981610e95565b840191505092915050565b600081546001811660008114610bc15760018114610be657610c2a565b607f6002830416610bd28187610e32565b955060ff1983168652808601935050610c2a565b60028204610bf48187610e32565b9550610bff85610de5565b60005b82811015610c2157815481890152600182019150602081019050610c02565b82880195505050505b505092915050565b600060a083016000830151610c4a6000860182610cb6565b506020830151610c5d6020860182610ae3565b5060408301518482036040860152610c758282610b32565b91505060608301518482036060860152610c8f8282610b32565b91505060808301518482036080860152610ca98282610b32565b9150508091505092915050565b610cbf81610e49565b82525050565b610cce81610e49565b82525050565b6000610ce08284610b01565b915081905092915050565b6000610cf78284610ba4565b915081905092915050565b60006020820190508181036000830152610d1c8184610c32565b905092915050565b600060a082019050610d396000830188610cc5565b610d466020830187610af2565b8181036040830152610d588186610b6b565b90508181036060830152610d6c8185610b6b565b90508181036080830152610d808184610b6b565b90509695505050505050565b6000604051905081810181811067ffffffffffffffff82111715610daf57600080fd5b8060405250919050565b600067ffffffffffffffff821115610dd057600080fd5b601f19601f8301169050602081019050919050565b60008190508160005260206000209050919050565b600081519050919050565b600081519050919050565b600082825260208201905092915050565b600082825260208201905092915050565b600081905092915050565b60008115159050919050565b6000819050919050565b82818337600083830152505050565b60005b83811015610e80578082015181840152602081019050610e65565b83811115610e8f576000848401525b50505050565b6000601f19601f8301169050919050565b610eaf81610e49565b8114610eba57600080fd5b5056fea365627a7a723158205d12ac53e9c4ec4ded95d17318a48c400980f12330f31c59455628e9faf1dcca6c6578706572696d656e74616cf564736f6c63430005100040",
  "source": "pragma solidity ^0.5.16;\r\npragma experimental ABIEncoderV2;\r\n\r\n/** \r\n * @title Ballot\r\n * @dev Implements voting process along with vote delegation\r\n */\r\ncontract Mainifactors {\r\n   \r\n    struct User {\r\n        uint userid; // weight is accumulated by delegation\r\n        bool deleted;  // if true, that person already voted\r\n        string username; \r\n        string password;  // index of the voted proposal\r\n        string name;\r\n    }\r\n    \r\n    User[] public users;\r\n    uint _userid;\r\n    constructor() public{\r\n        if(users.length==0){\r\n            users.push(User({\r\n                userid:0,\r\n                deleted:false,\r\n                name:\"null\",\r\n                username:\"admin\",\r\n                password:\"admin\"\r\n            }));\r\n            _userid=1;\r\n        }\r\n    }\r\n    \r\n    function login(string memory  username,string memory  password) public view returns(User memory user){\r\n        bool find=false;\r\n        for (uint i = 0; i < users.length; i++) {\r\n            if(uint(keccak256(abi.encodePacked((users[i].username))))==uint(keccak256(abi.encodePacked((username)))) && uint(keccak256(abi.encodePacked((users[i].password)))) ==uint(keccak256(abi.encodePacked((password)))) && users[i].deleted==false){\r\n                find=true;\r\n                return users[i];\r\n            }\r\n        }\r\n        \r\n        if(find==false)\r\n            return User({\r\n                userid:0,\r\n                deleted:true,\r\n                name:\"null\",\r\n                username:\"null\",\r\n                password:\"null\"\r\n            });\r\n    }\r\n    \r\n    function regiter(string memory username,string memory password,string memory name)public{\r\n        User memory user=login(username,password);\r\n        if(user.deleted==true){\r\n            users.push(User({\r\n                userid:_userid,\r\n                deleted:false,\r\n                name:name,\r\n                username:username,\r\n                password:password\r\n            }));\r\n            _userid++;\r\n        }\r\n    }\r\n}",
  "sourcePath": "D:/Projects/GP/contracts/Manifactor.sol",
  "compiler": {
    "name": "solc",
    "version": "0.5.16+commit.9c3226ce.Emscripten.clang"
  },
  "schemaVersion": "3.3.4",
  "updatedAt": "2021-03-19T14:45:04.418Z",
  "networkType": "ethereum",
  "devdoc": {
    "details": "Implements voting process along with vote delegation",
    "methods": {},
    "title": "Ballot"
  },
  "userdoc": {
    "methods": {}
  }
}