{
  "contractName": "Mediciences",
  "abi": [
    {
      "inputs": [],
      "payable": false,
      "stateMutability": "nonpayable",
      "type": "constructor"
    },
    {
      "constant": true,
      "inputs": [
        {
          "internalType": "uint256",
          "name": "",
          "type": "uint256"
        }
      ],
      "name": "_Searchmedicien",
      "outputs": [
        {
          "internalType": "uint256",
          "name": "id",
          "type": "uint256"
        },
        {
          "internalType": "string",
          "name": "name",
          "type": "string"
        },
        {
          "internalType": "string",
          "name": "serial",
          "type": "string"
        },
        {
          "internalType": "uint256",
          "name": "productiondate",
          "type": "uint256"
        },
        {
          "internalType": "uint256",
          "name": "expiredate",
          "type": "uint256"
        },
        {
          "internalType": "uint256",
          "name": "manfiactorid",
          "type": "uint256"
        },
        {
          "internalType": "bool",
          "name": "delivired",
          "type": "bool"
        },
        {
          "internalType": "bool",
          "name": "ordered",
          "type": "bool"
        }
      ],
      "payable": false,
      "stateMutability": "view",
      "type": "function"
    },
    {
      "constant": true,
      "inputs": [
        {
          "internalType": "uint256",
          "name": "",
          "type": "uint256"
        }
      ],
      "name": "mediciences",
      "outputs": [
        {
          "internalType": "uint256",
          "name": "id",
          "type": "uint256"
        },
        {
          "internalType": "string",
          "name": "name",
          "type": "string"
        },
        {
          "internalType": "string",
          "name": "serial",
          "type": "string"
        },
        {
          "internalType": "uint256",
          "name": "productiondate",
          "type": "uint256"
        },
        {
          "internalType": "uint256",
          "name": "expiredate",
          "type": "uint256"
        },
        {
          "internalType": "uint256",
          "name": "manfiactorid",
          "type": "uint256"
        },
        {
          "internalType": "bool",
          "name": "delivired",
          "type": "bool"
        },
        {
          "internalType": "bool",
          "name": "ordered",
          "type": "bool"
        }
      ],
      "payable": false,
      "stateMutability": "view",
      "type": "function"
    },
    {
      "constant": false,
      "inputs": [
        {
          "internalType": "uint256",
          "name": "_manfiactorid",
          "type": "uint256"
        }
      ],
      "name": "getmedicienbymanf",
      "outputs": [],
      "payable": false,
      "stateMutability": "nonpayable",
      "type": "function"
    },
    {
      "constant": false,
      "inputs": [],
      "name": "get_nonorderd_nonconfirmed_medicien",
      "outputs": [],
      "payable": false,
      "stateMutability": "nonpayable",
      "type": "function"
    },
    {
      "constant": true,
      "inputs": [],
      "name": "returnSearchedData",
      "outputs": [
        {
          "components": [
            {
              "internalType": "uint256",
              "name": "id",
              "type": "uint256"
            },
            {
              "internalType": "string",
              "name": "name",
              "type": "string"
            },
            {
              "internalType": "string",
              "name": "serial",
              "type": "string"
            },
            {
              "internalType": "uint256",
              "name": "productiondate",
              "type": "uint256"
            },
            {
              "internalType": "uint256",
              "name": "expiredate",
              "type": "uint256"
            },
            {
              "internalType": "uint256",
              "name": "manfiactorid",
              "type": "uint256"
            },
            {
              "internalType": "bool",
              "name": "delivired",
              "type": "bool"
            },
            {
              "internalType": "bool",
              "name": "ordered",
              "type": "bool"
            }
          ],
          "internalType": "struct Mediciences.Medicien[]",
          "name": "_medicien",
          "type": "tuple[]"
        }
      ],
      "payable": false,
      "stateMutability": "view",
      "type": "function"
    },
    {
      "constant": true,
      "inputs": [
        {
          "internalType": "uint256",
          "name": "id",
          "type": "uint256"
        }
      ],
      "name": "getmedicien",
      "outputs": [
        {
          "components": [
            {
              "internalType": "uint256",
              "name": "id",
              "type": "uint256"
            },
            {
              "internalType": "string",
              "name": "name",
              "type": "string"
            },
            {
              "internalType": "string",
              "name": "serial",
              "type": "string"
            },
            {
              "internalType": "uint256",
              "name": "productiondate",
              "type": "uint256"
            },
            {
              "internalType": "uint256",
              "name": "expiredate",
              "type": "uint256"
            },
            {
              "internalType": "uint256",
              "name": "manfiactorid",
              "type": "uint256"
            },
            {
              "internalType": "bool",
              "name": "delivired",
              "type": "bool"
            },
            {
              "internalType": "bool",
              "name": "ordered",
              "type": "bool"
            }
          ],
          "internalType": "struct Mediciences.Medicien",
          "name": "_medicien",
          "type": "tuple"
        }
      ],
      "payable": false,
      "stateMutability": "view",
      "type": "function"
    },
    {
      "constant": true,
      "inputs": [
        {
          "internalType": "string",
          "name": "seial",
          "type": "string"
        }
      ],
      "name": "getmedicien_serial",
      "outputs": [
        {
          "components": [
            {
              "internalType": "uint256",
              "name": "id",
              "type": "uint256"
            },
            {
              "internalType": "string",
              "name": "name",
              "type": "string"
            },
            {
              "internalType": "string",
              "name": "serial",
              "type": "string"
            },
            {
              "internalType": "uint256",
              "name": "productiondate",
              "type": "uint256"
            },
            {
              "internalType": "uint256",
              "name": "expiredate",
              "type": "uint256"
            },
            {
              "internalType": "uint256",
              "name": "manfiactorid",
              "type": "uint256"
            },
            {
              "internalType": "bool",
              "name": "delivired",
              "type": "bool"
            },
            {
              "internalType": "bool",
              "name": "ordered",
              "type": "bool"
            }
          ],
          "internalType": "struct Mediciences.Medicien",
          "name": "_medicien",
          "type": "tuple"
        }
      ],
      "payable": false,
      "stateMutability": "view",
      "type": "function"
    },
    {
      "constant": false,
      "inputs": [
        {
          "internalType": "string",
          "name": "_name",
          "type": "string"
        },
        {
          "internalType": "string",
          "name": "_serial",
          "type": "string"
        },
        {
          "internalType": "uint256",
          "name": "profuction",
          "type": "uint256"
        },
        {
          "internalType": "uint256",
          "name": "expire",
          "type": "uint256"
        },
        {
          "internalType": "uint256",
          "name": "manfiactorid",
          "type": "uint256"
        }
      ],
      "name": "addmedicen",
      "outputs": [],
      "payable": false,
      "stateMutability": "nonpayable",
      "type": "function"
    },
    {
      "constant": false,
      "inputs": [
        {
          "internalType": "uint256",
          "name": "_medid",
          "type": "uint256"
        }
      ],
      "name": "OrderMedicien",
      "outputs": [],
      "payable": false,
      "stateMutability": "nonpayable",
      "type": "function"
    },
    {
      "constant": false,
      "inputs": [
        {
          "internalType": "uint256",
          "name": "_medid",
          "type": "uint256"
        }
      ],
      "name": "deleiverMedicien",
      "outputs": [],
      "payable": false,
      "stateMutability": "nonpayable",
      "type": "function"
    }
  ],
  "bytecode": "0x608060405234801561001057600080fd5b506001600281905550611ce6806100286000396000f3fe608060405234801561001057600080fd5b506004361061009e5760003560e01c8063750cf32b11610066578063750cf32b1461013157806380e4100d146101615780639def5a471461017f578063bd7d58fa146101b6578063e13527b0146101ed5761009e565b806302553f7e146100a357806304d8e391146100d357806320a97713146100ef57806348815d7a1461010b57806357dd10f914610127575b600080fd5b6100bd60048036036100b891908101906116ae565b610209565b6040516100ca9190611a8b565b60405180910390f35b6100ed60048036036100e891908101906116ae565b6104df565b005b610109600480360361010491908101906116ae565b610655565b005b610125600480360361012091908101906116ae565b6106e9565b005b61012f61077d565b005b61014b600480360361014691908101906115c6565b61093f565b6040516101589190611a8b565b60405180910390f35b610169610c66565b6040516101769190611a69565b60405180910390f35b610199600480360361019491908101906116ae565b610e68565b6040516101ad989796959493929190611aad565b60405180910390f35b6101d060048036036101cb91908101906116ae565b611007565b6040516101e4989796959493929190611aad565b60405180910390f35b61020760048036036102029190810190611607565b6111a6565b005b6102116112f5565b60008090505b60008054905081101561042857826000828154811061023257fe5b906000526020600020906007020160000154141561041b576000818154811061025757fe5b90600052602060002090600702016040518061010001604052908160008201548152602001600182018054600181600116156101000203166002900480601f0160208091040260200160405190810160405280929190818152602001828054600181600116156101000203166002900480156103145780601f106102e957610100808354040283529160200191610314565b820191906000526020600020905b8154815290600101906020018083116102f757829003601f168201915b50505050508152602001600282018054600181600116156101000203166002900480601f0160208091040260200160405190810160405280929190818152602001828054600181600116156101000203166002900480156103b65780601f1061038b576101008083540402835291602001916103b6565b820191906000526020600020905b81548152906001019060200180831161039957829003601f168201915b505050505081526020016003820154815260200160048201548152602001600582015481526020016006820160009054906101000a900460ff161515151581526020016006820160019054906101000a900460ff1615151515815250509150506104da565b8080600101915050610217565b50604051806101000160405280600081526020016040518060400160405280600481526020017f6e756c6c0000000000000000000000000000000000000000000000000000000081525081526020016040518060400160405280600481526020017f6e756c6c0000000000000000000000000000000000000000000000000000000081525081526020016000815260200160008152602001600081526020016000151581526020016000151581525090505b919050565b600160006104ed919061133e565b60008090505b60008054905081101561065157816000828154811061050e57fe5b90600052602060002090600702016005015414156106445760016000828154811061053557fe5b906000526020600020906007020190806001815401808255809150509060018203906000526020600020906007020160009091929091909150600082015481600001556001820181600101908054600181600116156101000203166002900461059f929190611362565b50600282018160020190805460018160011615610100020316600290046105c7929190611362565b506003820154816003015560048201548160040155600582015481600501556006820160009054906101000a900460ff168160060160006101000a81548160ff0219169083151502179055506006820160019054906101000a900460ff168160060160016101000a81548160ff0219169083151502179055505050505b80806001019150506104f3565b5050565b60008090505b6000805490508110156106e557600015156000828154811061067957fe5b906000526020600020906007020160060160019054906101000a900460ff16151514156106d8576001600082815481106106af57fe5b906000526020600020906007020160060160016101000a81548160ff0219169083151502179055505b808060010191505061065b565b5050565b60008090505b60008054905081101561077957600015156000828154811061070d57fe5b906000526020600020906007020160060160009054906101000a900460ff161515141561076c5760016000828154811061074357fe5b906000526020600020906007020160060160006101000a81548160ff0219169083151502179055505b80806001019150506106ef565b5050565b6001600061078b919061133e565b60008090505b60008054905081101561093c5760001515600082815481106107af57fe5b906000526020600020906007020160060160009054906101000a900460ff16151514801561080c575060001515600082815481106107e957fe5b906000526020600020906007020160060160019054906101000a900460ff161515145b1561092f5760016000828154811061082057fe5b906000526020600020906007020190806001815401808255809150509060018203906000526020600020906007020160009091929091909150600082015481600001556001820181600101908054600181600116156101000203166002900461088a929190611362565b50600282018160020190805460018160011615610100020316600290046108b2929190611362565b506003820154816003015560048201548160040155600582015481600501556006820160009054906101000a900460ff168160060160006101000a81548160ff0219169083151502179055506006820160019054906101000a900460ff168160060160016101000a81548160ff0219169083151502179055505050505b8080600101915050610791565b50565b6109476112f5565b60008090505b600080549050811015610baf578260405160200161096b9190611a3b565b6040516020818303038152906040528051906020012060001c6000828154811061099157fe5b90600052602060002090600702016002016040516020016109b29190611a52565b6040516020818303038152906040528051906020012060001c1415610ba257600081815481106109de57fe5b90600052602060002090600702016040518061010001604052908160008201548152602001600182018054600181600116156101000203166002900480601f016020809104026020016040519081016040528092919081815260200182805460018160011615610100020316600290048015610a9b5780601f10610a7057610100808354040283529160200191610a9b565b820191906000526020600020905b815481529060010190602001808311610a7e57829003601f168201915b50505050508152602001600282018054600181600116156101000203166002900480601f016020809104026020016040519081016040528092919081815260200182805460018160011615610100020316600290048015610b3d5780601f10610b1257610100808354040283529160200191610b3d565b820191906000526020600020905b815481529060010190602001808311610b2057829003601f168201915b505050505081526020016003820154815260200160048201548152602001600582015481526020016006820160009054906101000a900460ff161515151581526020016006820160019054906101000a900460ff161515151581525050915050610c61565b808060010191505061094d565b50604051806101000160405280600081526020016040518060400160405280600481526020017f6e756c6c0000000000000000000000000000000000000000000000000000000081525081526020016040518060400160405280600481526020017f6e756c6c0000000000000000000000000000000000000000000000000000000081525081526020016000815260200160008152602001600081526020016000151581526020016000151581525090505b919050565b60606001805480602002602001604051908101604052809291908181526020016000905b82821015610e5f57838290600052602060002090600702016040518061010001604052908160008201548152602001600182018054600181600116156101000203166002900480601f016020809104026020016040519081016040528092919081815260200182805460018160011615610100020316600290048015610d515780601f10610d2657610100808354040283529160200191610d51565b820191906000526020600020905b815481529060010190602001808311610d3457829003601f168201915b50505050508152602001600282018054600181600116156101000203166002900480601f016020809104026020016040519081016040528092919081815260200182805460018160011615610100020316600290048015610df35780601f10610dc857610100808354040283529160200191610df3565b820191906000526020600020905b815481529060010190602001808311610dd657829003601f168201915b505050505081526020016003820154815260200160048201548152602001600582015481526020016006820160009054906101000a900460ff161515151581526020016006820160019054906101000a900460ff16151515158152505081526020019060010190610c8a565b50505050905090565b60018181548110610e7557fe5b9060005260206000209060070201600091509050806000015490806001018054600181600116156101000203166002900480601f016020809104026020016040519081016040528092919081815260200182805460018160011615610100020316600290048015610f275780601f10610efc57610100808354040283529160200191610f27565b820191906000526020600020905b815481529060010190602001808311610f0a57829003601f168201915b505050505090806002018054600181600116156101000203166002900480601f016020809104026020016040519081016040528092919081815260200182805460018160011615610100020316600290048015610fc55780601f10610f9a57610100808354040283529160200191610fc5565b820191906000526020600020905b815481529060010190602001808311610fa857829003601f168201915b5050505050908060030154908060040154908060050154908060060160009054906101000a900460ff16908060060160019054906101000a900460ff16905088565b6000818154811061101457fe5b9060005260206000209060070201600091509050806000015490806001018054600181600116156101000203166002900480601f0160208091040260200160405190810160405280929190818152602001828054600181600116156101000203166002900480156110c65780601f1061109b576101008083540402835291602001916110c6565b820191906000526020600020905b8154815290600101906020018083116110a957829003601f168201915b505050505090806002018054600181600116156101000203166002900480601f0160208091040260200160405190810160405280929190818152602001828054600181600116156101000203166002900480156111645780601f1061113957610100808354040283529160200191611164565b820191906000526020600020905b81548152906001019060200180831161114757829003601f168201915b5050505050908060030154908060040154908060050154908060060160009054906101000a900460ff16908060060160019054906101000a900460ff16905088565b6111ae6112f5565b6111b78561093f565b90506000816000015114156112ed5760006040518061010001604052806002548152602001888152602001878152602001868152602001858152602001848152602001600015158152602001600015158152509080600181540180825580915050906001820390600052602060002090600702016000909192909190915060008201518160000155602082015181600101908051906020019061125b9291906113e9565b5060408201518160020190805190602001906112789291906113e9565b50606082015181600301556080820151816004015560a0820151816005015560c08201518160060160006101000a81548160ff02191690831515021790555060e08201518160060160016101000a81548160ff0219169083151502179055505050506002600081548092919060010191905055505b505050505050565b6040518061010001604052806000815260200160608152602001606081526020016000815260200160008152602001600081526020016000151581526020016000151581525090565b508054600082556007029060005260206000209081019061135f9190611469565b50565b828054600181600116156101000203166002900490600052602060002090601f016020900481019282601f1061139b57805485556113d8565b828001600101855582156113d857600052602060002091601f016020900482015b828111156113d75782548255916001019190600101906113bc565b5b5090506113e591906114f0565b5090565b828054600181600116156101000203166002900490600052602060002090601f016020900481019282601f1061142a57805160ff1916838001178555611458565b82800160010185558215611458579182015b8281111561145757825182559160200191906001019061143c565b5b50905061146591906114f0565b5090565b6114ed91905b808211156114e9576000808201600090556001820160006114909190611515565b6002820160006114a09190611515565b6003820160009055600482016000905560058201600090556006820160006101000a81549060ff02191690556006820160016101000a81549060ff02191690555060070161146f565b5090565b90565b61151291905b8082111561150e5760008160009055506001016114f6565b5090565b90565b50805460018160011615610100020316600290046000825580601f1061153b575061155a565b601f01602090049060005260206000209081019061155991906114f0565b5b50565b600082601f83011261156e57600080fd5b813561158161157c82611b66565b611b39565b9150808252602083016020830185838301111561159d57600080fd5b6115a8838284611c39565b50505092915050565b6000813590506115c081611c8c565b92915050565b6000602082840312156115d857600080fd5b600082013567ffffffffffffffff8111156115f257600080fd5b6115fe8482850161155d565b91505092915050565b600080600080600060a0868803121561161f57600080fd5b600086013567ffffffffffffffff81111561163957600080fd5b6116458882890161155d565b955050602086013567ffffffffffffffff81111561166257600080fd5b61166e8882890161155d565b945050604061167f888289016115b1565b9350506060611690888289016115b1565b92505060806116a1888289016115b1565b9150509295509295909350565b6000602082840312156116c057600080fd5b60006116ce848285016115b1565b91505092915050565b60006116e38383611966565b905092915050565b60006116f682611bb7565b6117008185611be5565b93508360208202850161171285611b92565b8060005b8581101561174e578484038952815161172f85826116d7565b945061173a83611bd8565b925060208a01995050600181019050611716565b50829750879550505050505092915050565b61176981611c23565b82525050565b61177881611c23565b82525050565b600061178982611bcd565b6117938185611c18565b93506117a3818560208601611c48565b80840191505092915050565b60006117ba82611bc2565b6117c48185611bf6565b93506117d4818560208601611c48565b6117dd81611c7b565b840191505092915050565b60006117f382611bc2565b6117fd8185611c07565b935061180d818560208601611c48565b61181681611c7b565b840191505092915050565b60008154600181166000811461183e5760018114611863576118a7565b607f600283041661184f8187611c18565b955060ff19831686528086019350506118a7565b600282046118718187611c18565b955061187c85611ba2565b60005b8281101561189e5781548189015260018201915060208101905061187f565b82880195505050505b505092915050565b6000610100830160008301516118c86000860182611a1d565b50602083015184820360208601526118e082826117af565b915050604083015184820360408601526118fa82826117af565b915050606083015161190f6060860182611a1d565b5060808301516119226080860182611a1d565b5060a083015161193560a0860182611a1d565b5060c083015161194860c0860182611760565b5060e083015161195b60e0860182611760565b508091505092915050565b60006101008301600083015161197f6000860182611a1d565b506020830151848203602086015261199782826117af565b915050604083015184820360408601526119b182826117af565b91505060608301516119c66060860182611a1d565b5060808301516119d96080860182611a1d565b5060a08301516119ec60a0860182611a1d565b5060c08301516119ff60c0860182611760565b5060e0830151611a1260e0860182611760565b508091505092915050565b611a2681611c2f565b82525050565b611a3581611c2f565b82525050565b6000611a47828461177e565b915081905092915050565b6000611a5e8284611821565b915081905092915050565b60006020820190508181036000830152611a8381846116eb565b905092915050565b60006020820190508181036000830152611aa581846118af565b905092915050565b600061010082019050611ac3600083018b611a2c565b8181036020830152611ad5818a6117e8565b90508181036040830152611ae981896117e8565b9050611af86060830188611a2c565b611b056080830187611a2c565b611b1260a0830186611a2c565b611b1f60c083018561176f565b611b2c60e083018461176f565b9998505050505050505050565b6000604051905081810181811067ffffffffffffffff82111715611b5c57600080fd5b8060405250919050565b600067ffffffffffffffff821115611b7d57600080fd5b601f19601f8301169050602081019050919050565b6000819050602082019050919050565b60008190508160005260206000209050919050565b600081519050919050565b600081519050919050565b600081519050919050565b6000602082019050919050565b600082825260208201905092915050565b600082825260208201905092915050565b600082825260208201905092915050565b600081905092915050565b60008115159050919050565b6000819050919050565b82818337600083830152505050565b60005b83811015611c66578082015181840152602081019050611c4b565b83811115611c75576000848401525b50505050565b6000601f19601f8301169050919050565b611c9581611c2f565b8114611ca057600080fd5b5056fea365627a7a723158205372de221664d4e81385821c8f2d430ff364388909bb416d0c80255e99fe80626c6578706572696d656e74616cf564736f6c63430005100040",
  "source": "// SPDX-License-Identifier: MIT\r\npragma solidity ^0.5.16;\r\n\r\npragma experimental ABIEncoderV2;\r\n\r\n/**\r\n * @title Ballot\r\n * @dev Implements voting process along with vote delegation\r\n */\r\ncontract Mediciences {\r\n    struct Medicien {\r\n        uint256 id; // weight is accumulated by delegation\r\n        string name;\r\n        string serial; // index of the voted proposal\r\n        uint256 productiondate;\r\n        uint256 expiredate;\r\n        uint256 manfiactorid;\r\n        bool delivired;\r\n        bool ordered;\r\n    }\r\n\r\n    Medicien[] public mediciences;\r\n    Medicien[] public _Searchmedicien;\r\n    uint256 _id;\r\n\r\n    constructor() public {\r\n        _id = 1;\r\n    }\r\n\r\n    function getmedicienbymanf(uint256 _manfiactorid) public {\r\n        delete _Searchmedicien;\r\n        for (uint256 i = 0; i < mediciences.length; i++) {\r\n            if (\r\n                mediciences[i].manfiactorid == _manfiactorid\r\n            ) {\r\n                _Searchmedicien.push(mediciences[i]);\r\n            }\r\n        }\r\n    }\r\n\r\n    function get_nonorderd_nonconfirmed_medicien() public {\r\n        delete _Searchmedicien;\r\n        for (uint256 i = 0; i < mediciences.length; i++) {\r\n            if (\r\n                mediciences[i].delivired == false &&mediciences[i].ordered == false\r\n            ) {\r\n                _Searchmedicien.push(mediciences[i]);\r\n            }\r\n        }\r\n    }\r\n\r\n    function returnSearchedData()\r\n        public\r\n        view\r\n        returns (Medicien[] memory _medicien)\r\n    {\r\n        return _Searchmedicien;\r\n    }\r\n\r\n    function getmedicien(uint256 id)\r\n        public\r\n        view\r\n        returns (Medicien memory _medicien)\r\n    {\r\n        for (uint256 i = 0; i < mediciences.length; i++) {\r\n            if (mediciences[i].id == id) {\r\n                return (mediciences[i]);\r\n            }\r\n        }\r\n        return\r\n            Medicien({\r\n                name: \"null\",\r\n                id: 0,\r\n                serial: \"null\",\r\n                productiondate: 0,\r\n                expiredate: 0,\r\n                manfiactorid: 0,\r\n                delivired: false,\r\n                ordered:false\r\n            });\r\n    }\r\n\r\n    function getmedicien_serial(string memory seial)\r\n        public\r\n        view\r\n        returns (Medicien memory _medicien)\r\n    {\r\n        for (uint256 i = 0; i < mediciences.length; i++) {\r\n            if (\r\n                uint256(keccak256(abi.encodePacked((mediciences[i].serial)))) ==\r\n                uint256(keccak256(abi.encodePacked((seial))))\r\n            ) {\r\n                return (mediciences[i]);\r\n            }\r\n        }\r\n        return\r\n            Medicien({\r\n                name: \"null\",\r\n                id: 0,\r\n                serial: \"null\",\r\n                productiondate: 0,\r\n                expiredate: 0,\r\n                manfiactorid: 0,\r\n                delivired: false,\r\n                ordered:false\r\n            });\r\n    }\r\n\r\n    function addmedicen(\r\n        string memory _name,\r\n        string memory _serial,\r\n        uint256 profuction,\r\n        uint256 expire,\r\n        uint256 manfiactorid\r\n    ) public {\r\n        Medicien memory med = getmedicien_serial(_serial);\r\n        if (med.id == 0) {\r\n            mediciences.push(\r\n                Medicien({\r\n                    id: _id,\r\n                    name: _name,\r\n                    serial: _serial,\r\n                    productiondate: profuction,\r\n                    expiredate: expire,\r\n                    manfiactorid: manfiactorid,\r\n                    delivired: false,\r\n                    ordered:false\r\n                })\r\n            );\r\n            _id++;\r\n        }\r\n    }\r\n\r\n    function OrderMedicien(uint256 _medid) public {\r\n        for (uint256 i = 0; i < mediciences.length; i++) {\r\n            if (mediciences[i].ordered == false) {\r\n                mediciences[i].ordered = true;\r\n            }\r\n        }\r\n    }\r\n    function deleiverMedicien(uint256 _medid) public {\r\n        for (uint256 i = 0; i < mediciences.length; i++) {\r\n            if (mediciences[i].delivired == false) {\r\n                mediciences[i].delivired = true;\r\n            }\r\n        }\r\n    }\r\n}\r\n",
  "sourcePath": "D:/Projects/GP/contracts/Medicien.sol",
  "compiler": {
    "name": "solc",
    "version": "0.5.16+commit.9c3226ce.Emscripten.clang"
  },
  "schemaVersion": "3.3.4",
  "updatedAt": "2021-03-19T14:45:02.771Z",
  "networkType": "ethereum",
  "devdoc": {
    "details": "Implements voting process along with vote delegation",
    "methods": {},
    "title": "Ballot"
  },
  "userdoc": {
    "methods": {}
  }
}