{
  "contractName": "Mediciences",
  "abi": [
    {
      "inputs": [],
      "payable": false,
      "stateMutability": "nonpayable",
      "type": "constructor"
    },
    {
      "constant": true,
      "inputs": [
        {
          "internalType": "uint256",
          "name": "",
          "type": "uint256"
        }
      ],
      "name": "_Searchmedicien",
      "outputs": [
        {
          "internalType": "uint256",
          "name": "id",
          "type": "uint256"
        },
        {
          "internalType": "string",
          "name": "name",
          "type": "string"
        },
        {
          "internalType": "string",
          "name": "serial",
          "type": "string"
        },
        {
          "internalType": "uint256",
          "name": "productiondate",
          "type": "uint256"
        },
        {
          "internalType": "uint256",
          "name": "expiredate",
          "type": "uint256"
        },
        {
          "internalType": "uint256",
          "name": "manfiactorid",
          "type": "uint256"
        },
        {
          "internalType": "bool",
          "name": "delivired",
          "type": "bool"
        }
      ],
      "payable": false,
      "stateMutability": "view",
      "type": "function"
    },
    {
      "constant": true,
      "inputs": [
        {
          "internalType": "uint256",
          "name": "",
          "type": "uint256"
        }
      ],
      "name": "mediciences",
      "outputs": [
        {
          "internalType": "uint256",
          "name": "id",
          "type": "uint256"
        },
        {
          "internalType": "string",
          "name": "name",
          "type": "string"
        },
        {
          "internalType": "string",
          "name": "serial",
          "type": "string"
        },
        {
          "internalType": "uint256",
          "name": "productiondate",
          "type": "uint256"
        },
        {
          "internalType": "uint256",
          "name": "expiredate",
          "type": "uint256"
        },
        {
          "internalType": "uint256",
          "name": "manfiactorid",
          "type": "uint256"
        },
        {
          "internalType": "bool",
          "name": "delivired",
          "type": "bool"
        }
      ],
      "payable": false,
      "stateMutability": "view",
      "type": "function"
    },
    {
      "constant": false,
      "inputs": [
        {
          "internalType": "uint256",
          "name": "_manfiactorid",
          "type": "uint256"
        }
      ],
      "name": "getmedicienbymanf",
      "outputs": [],
      "payable": false,
      "stateMutability": "nonpayable",
      "type": "function"
    },
    {
      "constant": true,
      "inputs": [],
      "name": "returnSearchedData",
      "outputs": [
        {
          "components": [
            {
              "internalType": "uint256",
              "name": "id",
              "type": "uint256"
            },
            {
              "internalType": "string",
              "name": "name",
              "type": "string"
            },
            {
              "internalType": "string",
              "name": "serial",
              "type": "string"
            },
            {
              "internalType": "uint256",
              "name": "productiondate",
              "type": "uint256"
            },
            {
              "internalType": "uint256",
              "name": "expiredate",
              "type": "uint256"
            },
            {
              "internalType": "uint256",
              "name": "manfiactorid",
              "type": "uint256"
            },
            {
              "internalType": "bool",
              "name": "delivired",
              "type": "bool"
            }
          ],
          "internalType": "struct Mediciences.Medicien[]",
          "name": "_medicien",
          "type": "tuple[]"
        }
      ],
      "payable": false,
      "stateMutability": "view",
      "type": "function"
    },
    {
      "constant": true,
      "inputs": [
        {
          "internalType": "uint256",
          "name": "id",
          "type": "uint256"
        }
      ],
      "name": "getmedicien",
      "outputs": [
        {
          "components": [
            {
              "internalType": "uint256",
              "name": "id",
              "type": "uint256"
            },
            {
              "internalType": "string",
              "name": "name",
              "type": "string"
            },
            {
              "internalType": "string",
              "name": "serial",
              "type": "string"
            },
            {
              "internalType": "uint256",
              "name": "productiondate",
              "type": "uint256"
            },
            {
              "internalType": "uint256",
              "name": "expiredate",
              "type": "uint256"
            },
            {
              "internalType": "uint256",
              "name": "manfiactorid",
              "type": "uint256"
            },
            {
              "internalType": "bool",
              "name": "delivired",
              "type": "bool"
            }
          ],
          "internalType": "struct Mediciences.Medicien",
          "name": "_medicien",
          "type": "tuple"
        }
      ],
      "payable": false,
      "stateMutability": "view",
      "type": "function"
    },
    {
      "constant": true,
      "inputs": [
        {
          "internalType": "string",
          "name": "seial",
          "type": "string"
        }
      ],
      "name": "getmedicien_serial",
      "outputs": [
        {
          "components": [
            {
              "internalType": "uint256",
              "name": "id",
              "type": "uint256"
            },
            {
              "internalType": "string",
              "name": "name",
              "type": "string"
            },
            {
              "internalType": "string",
              "name": "serial",
              "type": "string"
            },
            {
              "internalType": "uint256",
              "name": "productiondate",
              "type": "uint256"
            },
            {
              "internalType": "uint256",
              "name": "expiredate",
              "type": "uint256"
            },
            {
              "internalType": "uint256",
              "name": "manfiactorid",
              "type": "uint256"
            },
            {
              "internalType": "bool",
              "name": "delivired",
              "type": "bool"
            }
          ],
          "internalType": "struct Mediciences.Medicien",
          "name": "_medicien",
          "type": "tuple"
        }
      ],
      "payable": false,
      "stateMutability": "view",
      "type": "function"
    },
    {
      "constant": false,
      "inputs": [
        {
          "internalType": "string",
          "name": "_name",
          "type": "string"
        },
        {
          "internalType": "string",
          "name": "_serial",
          "type": "string"
        },
        {
          "internalType": "uint256",
          "name": "profuction",
          "type": "uint256"
        },
        {
          "internalType": "uint256",
          "name": "expire",
          "type": "uint256"
        },
        {
          "internalType": "uint256",
          "name": "manfiactorid",
          "type": "uint256"
        }
      ],
      "name": "addmedicen",
      "outputs": [],
      "payable": false,
      "stateMutability": "nonpayable",
      "type": "function"
    }
  ],
  "bytecode": "0x608060405234801561001057600080fd5b506001600281905550611898806100286000396000f3fe608060405234801561001057600080fd5b506004361061007d5760003560e01c806380e4100d1161005b57806380e4100d146100fe5780639def5a471461011c578063bd7d58fa14610152578063e13527b0146101885761007d565b806302553f7e1461008257806304d8e391146100b2578063750cf32b146100ce575b600080fd5b61009c60048036036100979190810190611297565b6101a4565b6040516100a9919061164c565b60405180910390f35b6100cc60048036036100c79190810190611297565b610454565b005b6100e860048036036100e391908101906111af565b6105d8565b6040516100f5919061164c565b60405180910390f35b6101066108d9565b604051610113919061162a565b60405180910390f35b61013660048036036101319190810190611297565b610abf565b604051610149979695949392919061166e565b60405180910390f35b61016c60048036036101679190810190611297565b610c4b565b60405161017f979695949392919061166e565b60405180910390f35b6101a2600480360361019d91908101906111f0565b610dd7565b005b6101ac610efc565b60008090505b6000805490508110156103a75782600082815481106101cd57fe5b906000526020600020906007020160000154141561039a57600081815481106101f257fe5b90600052602060002090600702016040518060e001604052908160008201548152602001600182018054600181600116156101000203166002900480601f0160208091040260200160405190810160405280929190818152602001828054600181600116156101000203166002900480156102ae5780601f10610283576101008083540402835291602001916102ae565b820191906000526020600020905b81548152906001019060200180831161029157829003601f168201915b50505050508152602001600282018054600181600116156101000203166002900480601f0160208091040260200160405190810160405280929190818152602001828054600181600116156101000203166002900480156103505780601f1061032557610100808354040283529160200191610350565b820191906000526020600020905b81548152906001019060200180831161033357829003601f168201915b505050505081526020016003820154815260200160048201548152602001600582015481526020016006820160009054906101000a900460ff16151515158152505091505061044f565b80806001019150506101b2565b506040518060e00160405280600081526020016040518060400160405280600481526020017f6e756c6c0000000000000000000000000000000000000000000000000000000081525081526020016040518060400160405280600481526020017f6e756c6c0000000000000000000000000000000000000000000000000000000081525081526020016000815260200160008152602001600081526020016000151581525090505b919050565b600160006104629190610f3b565b60008090505b6000805490508110156105d457600015156000828154811061048657fe5b906000526020600020906007020160060160009054906101000a900460ff1615151480156104d1575081600082815481106104bd57fe5b906000526020600020906007020160050154145b156105c7576001600082815481106104e557fe5b906000526020600020906007020190806001815401808255809150509060018203906000526020600020906007020160009091929091909150600082015481600001556001820181600101908054600181600116156101000203166002900461054f929190610f5f565b5060028201816002019080546001816001161561010002031660029004610577929190610f5f565b506003820154816003015560048201548160040155600582015481600501556006820160009054906101000a900460ff168160060160006101000a81548160ff0219169083151502179055505050505b8080600101915050610468565b5050565b6105e0610efc565b60008090505b60008054905081101561082c578260405160200161060491906115fc565b6040516020818303038152906040528051906020012060001c6000828154811061062a57fe5b906000526020600020906007020160020160405160200161064b9190611613565b6040516020818303038152906040528051906020012060001c141561081f576000818154811061067757fe5b90600052602060002090600702016040518060e001604052908160008201548152602001600182018054600181600116156101000203166002900480601f0160208091040260200160405190810160405280929190818152602001828054600181600116156101000203166002900480156107335780601f1061070857610100808354040283529160200191610733565b820191906000526020600020905b81548152906001019060200180831161071657829003601f168201915b50505050508152602001600282018054600181600116156101000203166002900480601f0160208091040260200160405190810160405280929190818152602001828054600181600116156101000203166002900480156107d55780601f106107aa576101008083540402835291602001916107d5565b820191906000526020600020905b8154815290600101906020018083116107b857829003601f168201915b505050505081526020016003820154815260200160048201548152602001600582015481526020016006820160009054906101000a900460ff1615151515815250509150506108d4565b80806001019150506105e6565b506040518060e00160405280600081526020016040518060400160405280600481526020017f6e756c6c0000000000000000000000000000000000000000000000000000000081525081526020016040518060400160405280600481526020017f6e756c6c0000000000000000000000000000000000000000000000000000000081525081526020016000815260200160008152602001600081526020016000151581525090505b919050565b60606001805480602002602001604051908101604052809291908181526020016000905b82821015610ab657838290600052602060002090600702016040518060e001604052908160008201548152602001600182018054600181600116156101000203166002900480601f0160208091040260200160405190810160405280929190818152602001828054600181600116156101000203166002900480156109c35780601f10610998576101008083540402835291602001916109c3565b820191906000526020600020905b8154815290600101906020018083116109a657829003601f168201915b50505050508152602001600282018054600181600116156101000203166002900480601f016020809104026020016040519081016040528092919081815260200182805460018160011615610100020316600290048015610a655780601f10610a3a57610100808354040283529160200191610a65565b820191906000526020600020905b815481529060010190602001808311610a4857829003601f168201915b505050505081526020016003820154815260200160048201548152602001600582015481526020016006820160009054906101000a900460ff161515151581525050815260200190600101906108fd565b50505050905090565b60018181548110610acc57fe5b9060005260206000209060070201600091509050806000015490806001018054600181600116156101000203166002900480601f016020809104026020016040519081016040528092919081815260200182805460018160011615610100020316600290048015610b7e5780601f10610b5357610100808354040283529160200191610b7e565b820191906000526020600020905b815481529060010190602001808311610b6157829003601f168201915b505050505090806002018054600181600116156101000203166002900480601f016020809104026020016040519081016040528092919081815260200182805460018160011615610100020316600290048015610c1c5780601f10610bf157610100808354040283529160200191610c1c565b820191906000526020600020905b815481529060010190602001808311610bff57829003601f168201915b5050505050908060030154908060040154908060050154908060060160009054906101000a900460ff16905087565b60008181548110610c5857fe5b9060005260206000209060070201600091509050806000015490806001018054600181600116156101000203166002900480601f016020809104026020016040519081016040528092919081815260200182805460018160011615610100020316600290048015610d0a5780601f10610cdf57610100808354040283529160200191610d0a565b820191906000526020600020905b815481529060010190602001808311610ced57829003601f168201915b505050505090806002018054600181600116156101000203166002900480601f016020809104026020016040519081016040528092919081815260200182805460018160011615610100020316600290048015610da85780601f10610d7d57610100808354040283529160200191610da8565b820191906000526020600020905b815481529060010190602001808311610d8b57829003601f168201915b5050505050908060030154908060040154908060050154908060060160009054906101000a900460ff16905087565b610ddf610efc565b610de8856105d8565b9050600081600001511415610ef45760006040518060e0016040528060025481526020018881526020018781526020018681526020018581526020018481526020016000151581525090806001815401808255809150509060018203906000526020600020906007020160009091929091909150600082015181600001556020820151816001019080519060200190610e82929190610fe6565b506040820151816002019080519060200190610e9f929190610fe6565b50606082015181600301556080820151816004015560a0820151816005015560c08201518160060160006101000a81548160ff0219169083151502179055505050506002600081548092919060010191905055505b505050505050565b6040518060e001604052806000815260200160608152602001606081526020016000815260200160008152602001600081526020016000151581525090565b5080546000825560070290600052602060002090810190610f5c9190611066565b50565b828054600181600116156101000203166002900490600052602060002090601f016020900481019282601f10610f985780548555610fd5565b82800160010185558215610fd557600052602060002091601f016020900482015b82811115610fd4578254825591600101919060010190610fb9565b5b509050610fe291906110d9565b5090565b828054600181600116156101000203166002900490600052602060002090601f016020900481019282601f1061102757805160ff1916838001178555611055565b82800160010185558215611055579182015b82811115611054578251825591602001919060010190611039565b5b50905061106291906110d9565b5090565b6110d691905b808211156110d25760008082016000905560018201600061108d91906110fe565b60028201600061109d91906110fe565b6003820160009055600482016000905560058201600090556006820160006101000a81549060ff02191690555060070161106c565b5090565b90565b6110fb91905b808211156110f75760008160009055506001016110df565b5090565b90565b50805460018160011615610100020316600290046000825580601f106111245750611143565b601f01602090049060005260206000209081019061114291906110d9565b5b50565b600082601f83011261115757600080fd5b813561116a61116582611718565b6116eb565b9150808252602083016020830185838301111561118657600080fd5b6111918382846117eb565b50505092915050565b6000813590506111a98161183e565b92915050565b6000602082840312156111c157600080fd5b600082013567ffffffffffffffff8111156111db57600080fd5b6111e784828501611146565b91505092915050565b600080600080600060a0868803121561120857600080fd5b600086013567ffffffffffffffff81111561122257600080fd5b61122e88828901611146565b955050602086013567ffffffffffffffff81111561124b57600080fd5b61125788828901611146565b94505060406112688882890161119a565b93505060606112798882890161119a565b925050608061128a8882890161119a565b9150509295509295909350565b6000602082840312156112a957600080fd5b60006112b78482850161119a565b91505092915050565b60006112cc838361153b565b905092915050565b60006112df82611769565b6112e98185611797565b9350836020820285016112fb85611744565b8060005b85811015611337578484038952815161131885826112c0565b94506113238361178a565b925060208a019950506001810190506112ff565b50829750879550505050505092915050565b611352816117d5565b82525050565b611361816117d5565b82525050565b60006113728261177f565b61137c81856117ca565b935061138c8185602086016117fa565b80840191505092915050565b60006113a382611774565b6113ad81856117a8565b93506113bd8185602086016117fa565b6113c68161182d565b840191505092915050565b60006113dc82611774565b6113e681856117b9565b93506113f68185602086016117fa565b6113ff8161182d565b840191505092915050565b600081546001811660008114611427576001811461144c57611490565b607f600283041661143881876117ca565b955060ff1983168652808601935050611490565b6002820461145a81876117ca565b955061146585611754565b60005b8281101561148757815481890152600182019150602081019050611468565b82880195505050505b505092915050565b600060e0830160008301516114b060008601826115de565b50602083015184820360208601526114c88282611398565b915050604083015184820360408601526114e28282611398565b91505060608301516114f760608601826115de565b50608083015161150a60808601826115de565b5060a083015161151d60a08601826115de565b5060c083015161153060c0860182611349565b508091505092915050565b600060e08301600083015161155360008601826115de565b506020830151848203602086015261156b8282611398565b915050604083015184820360408601526115858282611398565b915050606083015161159a60608601826115de565b5060808301516115ad60808601826115de565b5060a08301516115c060a08601826115de565b5060c08301516115d360c0860182611349565b508091505092915050565b6115e7816117e1565b82525050565b6115f6816117e1565b82525050565b60006116088284611367565b915081905092915050565b600061161f828461140a565b915081905092915050565b6000602082019050818103600083015261164481846112d4565b905092915050565b600060208201905081810360008301526116668184611498565b905092915050565b600060e082019050611683600083018a6115ed565b818103602083015261169581896113d1565b905081810360408301526116a981886113d1565b90506116b860608301876115ed565b6116c560808301866115ed565b6116d260a08301856115ed565b6116df60c0830184611358565b98975050505050505050565b6000604051905081810181811067ffffffffffffffff8211171561170e57600080fd5b8060405250919050565b600067ffffffffffffffff82111561172f57600080fd5b601f19601f8301169050602081019050919050565b6000819050602082019050919050565b60008190508160005260206000209050919050565b600081519050919050565b600081519050919050565b600081519050919050565b6000602082019050919050565b600082825260208201905092915050565b600082825260208201905092915050565b600082825260208201905092915050565b600081905092915050565b60008115159050919050565b6000819050919050565b82818337600083830152505050565b60005b838110156118185780820151818401526020810190506117fd565b83811115611827576000848401525b50505050565b6000601f19601f8301169050919050565b611847816117e1565b811461185257600080fd5b5056fea365627a7a723158206da2eef1e66250c26f83d3fb032913e7e6ca4c94a4af21ca65d213d307d96fdc6c6578706572696d656e74616cf564736f6c63430005100040",
  "source": "// SPDX-License-Identifier: MIT\r\npragma solidity ^0.5.16;\r\n\r\npragma experimental ABIEncoderV2;\r\n\r\n/** \r\n * @title Ballot\r\n * @dev Implements voting process along with vote delegation\r\n */\r\ncontract Mediciences {\r\n   \r\n    struct Medicien {\r\n        uint id; // weight is accumulated by delegation\r\n        string name; \r\n        string serial;  // index of the voted proposal\r\n        uint productiondate;\r\n        uint expiredate;\r\n        uint manfiactorid;\r\n        bool delivired;\r\n    }\r\n    \r\n    Medicien[] public mediciences;\r\n    Medicien[] public _Searchmedicien;\r\n    uint _id;\r\n    constructor()public{\r\n        _id=1;\r\n    }\r\n    \r\n    function getmedicienbymanf(uint _manfiactorid) public {\r\n        delete _Searchmedicien;\r\n        for (uint i = 0; i < mediciences.length; i++) {\r\n            if(mediciences[i].delivired==false&&mediciences[i].manfiactorid==_manfiactorid){\r\n                _Searchmedicien.push( mediciences[i]);\r\n            }\r\n        }\r\n    }\r\n     function returnSearchedData() public view returns(Medicien[] memory _medicien){\r\n         return _Searchmedicien;\r\n     }\r\n    \r\n    function getmedicien(uint id) public view returns(Medicien memory _medicien){\r\n        for (uint i = 0; i < mediciences.length; i++) {\r\n            if(mediciences[i].id==id){\r\n                return(mediciences[i]);\r\n            }\r\n        }\r\n        return Medicien({\r\n            name:\"null\",\r\n            id:0,\r\n            serial:\"null\",\r\n            productiondate:0,\r\n            expiredate:0,\r\n            manfiactorid:0,\r\n            delivired:false\r\n        });\r\n    }\r\n    function getmedicien_serial(string memory seial) public view returns(Medicien memory _medicien){\r\n        for (uint i = 0; i < mediciences.length; i++) {\r\n            if(uint(keccak256(abi.encodePacked((mediciences[i].serial))))==uint(keccak256(abi.encodePacked((seial))))){\r\n                return(mediciences[i]);\r\n            }\r\n        }\r\n        return Medicien({\r\n            name:\"null\",\r\n            id:0,\r\n            serial:\"null\",\r\n            productiondate:0,\r\n            expiredate:0,\r\n            manfiactorid:0,\r\n            delivired:false\r\n        });\r\n    }\r\n    \r\n    function addmedicen(string memory _name,string memory _serial,uint profuction,uint expire,uint manfiactorid)public{\r\n        Medicien memory med=getmedicien_serial(_serial);\r\n        if(med.id==0){\r\n            mediciences.push(Medicien({\r\n                id:_id,\r\n                name:_name,\r\n                serial:_serial,\r\n                productiondate:profuction,\r\n                expiredate:expire,\r\n                manfiactorid:manfiactorid,\r\n                delivired:false\r\n            }));\r\n            _id++;\r\n        }\r\n    }\r\n}",
  "sourcePath": "D:/Projects/GP/contracts/Medicien.sol",
  "compiler": {
    "name": "solc",
    "version": "0.5.16+commit.9c3226ce.Emscripten.clang"
  },
  "schemaVersion": "3.3.4",
  "updatedAt": "2021-02-21T19:15:04.268Z",
  "networkType": "ethereum",
  "devdoc": {
    "details": "Implements voting process along with vote delegation",
    "methods": {},
    "title": "Ballot"
  },
  "userdoc": {
    "methods": {}
  }
}