{
  "contractName": "Pharmacy",
  "abi": [
    {
      "inputs": [],
      "payable": false,
      "stateMutability": "nonpayable",
      "type": "constructor"
    },
    {
      "constant": true,
      "inputs": [
        {
          "internalType": "uint256",
          "name": "",
          "type": "uint256"
        }
      ],
      "name": "_Seachmedi",
      "outputs": [
        {
          "internalType": "uint256",
          "name": "id",
          "type": "uint256"
        },
        {
          "internalType": "string",
          "name": "name",
          "type": "string"
        },
        {
          "internalType": "string",
          "name": "serial",
          "type": "string"
        },
        {
          "internalType": "uint256",
          "name": "productiondate",
          "type": "uint256"
        },
        {
          "internalType": "uint256",
          "name": "expiredate",
          "type": "uint256"
        },
        {
          "internalType": "uint256",
          "name": "manfiactorid",
          "type": "uint256"
        },
        {
          "internalType": "uint256",
          "name": "parmacyid",
          "type": "uint256"
        }
      ],
      "payable": false,
      "stateMutability": "view",
      "type": "function"
    },
    {
      "constant": true,
      "inputs": [
        {
          "internalType": "uint256",
          "name": "",
          "type": "uint256"
        }
      ],
      "name": "_SearchOrders",
      "outputs": [
        {
          "internalType": "uint256",
          "name": "orderid",
          "type": "uint256"
        },
        {
          "internalType": "uint256",
          "name": "medicienid",
          "type": "uint256"
        },
        {
          "internalType": "bool",
          "name": "confirmed",
          "type": "bool"
        },
        {
          "internalType": "bool",
          "name": "recieved",
          "type": "bool"
        },
        {
          "internalType": "uint256",
          "name": "manfiactorid",
          "type": "uint256"
        },
        {
          "internalType": "uint256",
          "name": "parmacyid",
          "type": "uint256"
        }
      ],
      "payable": false,
      "stateMutability": "view",
      "type": "function"
    },
    {
      "constant": true,
      "inputs": [
        {
          "internalType": "uint256",
          "name": "",
          "type": "uint256"
        }
      ],
      "name": "mediciences",
      "outputs": [
        {
          "internalType": "uint256",
          "name": "id",
          "type": "uint256"
        },
        {
          "internalType": "string",
          "name": "name",
          "type": "string"
        },
        {
          "internalType": "string",
          "name": "serial",
          "type": "string"
        },
        {
          "internalType": "uint256",
          "name": "productiondate",
          "type": "uint256"
        },
        {
          "internalType": "uint256",
          "name": "expiredate",
          "type": "uint256"
        },
        {
          "internalType": "uint256",
          "name": "manfiactorid",
          "type": "uint256"
        },
        {
          "internalType": "uint256",
          "name": "parmacyid",
          "type": "uint256"
        }
      ],
      "payable": false,
      "stateMutability": "view",
      "type": "function"
    },
    {
      "constant": true,
      "inputs": [
        {
          "internalType": "uint256",
          "name": "",
          "type": "uint256"
        }
      ],
      "name": "orders",
      "outputs": [
        {
          "internalType": "uint256",
          "name": "orderid",
          "type": "uint256"
        },
        {
          "internalType": "uint256",
          "name": "medicienid",
          "type": "uint256"
        },
        {
          "internalType": "bool",
          "name": "confirmed",
          "type": "bool"
        },
        {
          "internalType": "bool",
          "name": "recieved",
          "type": "bool"
        },
        {
          "internalType": "uint256",
          "name": "manfiactorid",
          "type": "uint256"
        },
        {
          "internalType": "uint256",
          "name": "parmacyid",
          "type": "uint256"
        }
      ],
      "payable": false,
      "stateMutability": "view",
      "type": "function"
    },
    {
      "constant": true,
      "inputs": [
        {
          "internalType": "uint256",
          "name": "",
          "type": "uint256"
        }
      ],
      "name": "users",
      "outputs": [
        {
          "internalType": "uint256",
          "name": "userid",
          "type": "uint256"
        },
        {
          "internalType": "bool",
          "name": "deleted",
          "type": "bool"
        },
        {
          "internalType": "string",
          "name": "username",
          "type": "string"
        },
        {
          "internalType": "string",
          "name": "password",
          "type": "string"
        },
        {
          "internalType": "string",
          "name": "name",
          "type": "string"
        }
      ],
      "payable": false,
      "stateMutability": "view",
      "type": "function"
    },
    {
      "constant": false,
      "inputs": [
        {
          "internalType": "uint256",
          "name": "_pharmaid",
          "type": "uint256"
        }
      ],
      "name": "getOrderbypharma",
      "outputs": [],
      "payable": false,
      "stateMutability": "nonpayable",
      "type": "function"
    },
    {
      "constant": false,
      "inputs": [
        {
          "internalType": "uint256",
          "name": "_manficid",
          "type": "uint256"
        }
      ],
      "name": "getOrderbymanfi",
      "outputs": [],
      "payable": false,
      "stateMutability": "nonpayable",
      "type": "function"
    },
    {
      "constant": false,
      "inputs": [
        {
          "internalType": "uint256",
          "name": "_pharmaid",
          "type": "uint256"
        }
      ],
      "name": "SSgetOrderbypharma",
      "outputs": [],
      "payable": false,
      "stateMutability": "nonpayable",
      "type": "function"
    },
    {
      "constant": false,
      "inputs": [
        {
          "internalType": "uint256",
          "name": "medicienid",
          "type": "uint256"
        },
        {
          "internalType": "uint256",
          "name": "manfiactorid",
          "type": "uint256"
        },
        {
          "internalType": "uint256",
          "name": "parmacyid",
          "type": "uint256"
        }
      ],
      "name": "addOrder",
      "outputs": [],
      "payable": false,
      "stateMutability": "nonpayable",
      "type": "function"
    },
    {
      "constant": false,
      "inputs": [
        {
          "internalType": "uint256",
          "name": "orderid",
          "type": "uint256"
        }
      ],
      "name": "confirmOrder",
      "outputs": [],
      "payable": false,
      "stateMutability": "nonpayable",
      "type": "function"
    },
    {
      "constant": false,
      "inputs": [
        {
          "internalType": "uint256",
          "name": "orderid",
          "type": "uint256"
        }
      ],
      "name": "recieveOrder",
      "outputs": [],
      "payable": false,
      "stateMutability": "nonpayable",
      "type": "function"
    },
    {
      "constant": true,
      "inputs": [],
      "name": "returnSearchedOrderData",
      "outputs": [
        {
          "components": [
            {
              "internalType": "uint256",
              "name": "orderid",
              "type": "uint256"
            },
            {
              "internalType": "uint256",
              "name": "medicienid",
              "type": "uint256"
            },
            {
              "internalType": "bool",
              "name": "confirmed",
              "type": "bool"
            },
            {
              "internalType": "bool",
              "name": "recieved",
              "type": "bool"
            },
            {
              "internalType": "uint256",
              "name": "manfiactorid",
              "type": "uint256"
            },
            {
              "internalType": "uint256",
              "name": "parmacyid",
              "type": "uint256"
            }
          ],
          "internalType": "struct Pharmacy.Order[]",
          "name": "_medicien",
          "type": "tuple[]"
        }
      ],
      "payable": false,
      "stateMutability": "view",
      "type": "function"
    },
    {
      "constant": false,
      "inputs": [
        {
          "internalType": "uint256",
          "name": "_pharmaid",
          "type": "uint256"
        }
      ],
      "name": "getmedicienbyPharma",
      "outputs": [],
      "payable": false,
      "stateMutability": "nonpayable",
      "type": "function"
    },
    {
      "constant": true,
      "inputs": [],
      "name": "returnSearchedMedicienData",
      "outputs": [
        {
          "components": [
            {
              "internalType": "uint256",
              "name": "id",
              "type": "uint256"
            },
            {
              "internalType": "string",
              "name": "name",
              "type": "string"
            },
            {
              "internalType": "string",
              "name": "serial",
              "type": "string"
            },
            {
              "internalType": "uint256",
              "name": "productiondate",
              "type": "uint256"
            },
            {
              "internalType": "uint256",
              "name": "expiredate",
              "type": "uint256"
            },
            {
              "internalType": "uint256",
              "name": "manfiactorid",
              "type": "uint256"
            },
            {
              "internalType": "uint256",
              "name": "parmacyid",
              "type": "uint256"
            }
          ],
          "internalType": "struct Pharmacy.Medicien[]",
          "name": "_medicien",
          "type": "tuple[]"
        }
      ],
      "payable": false,
      "stateMutability": "view",
      "type": "function"
    },
    {
      "constant": true,
      "inputs": [
        {
          "internalType": "uint256",
          "name": "id",
          "type": "uint256"
        }
      ],
      "name": "getmedicien",
      "outputs": [
        {
          "components": [
            {
              "internalType": "uint256",
              "name": "id",
              "type": "uint256"
            },
            {
              "internalType": "string",
              "name": "name",
              "type": "string"
            },
            {
              "internalType": "string",
              "name": "serial",
              "type": "string"
            },
            {
              "internalType": "uint256",
              "name": "productiondate",
              "type": "uint256"
            },
            {
              "internalType": "uint256",
              "name": "expiredate",
              "type": "uint256"
            },
            {
              "internalType": "uint256",
              "name": "manfiactorid",
              "type": "uint256"
            },
            {
              "internalType": "uint256",
              "name": "parmacyid",
              "type": "uint256"
            }
          ],
          "internalType": "struct Pharmacy.Medicien",
          "name": "_medicien",
          "type": "tuple"
        }
      ],
      "payable": false,
      "stateMutability": "view",
      "type": "function"
    },
    {
      "constant": true,
      "inputs": [
        {
          "internalType": "string",
          "name": "seial",
          "type": "string"
        }
      ],
      "name": "getmedicien_serial",
      "outputs": [
        {
          "components": [
            {
              "internalType": "uint256",
              "name": "id",
              "type": "uint256"
            },
            {
              "internalType": "string",
              "name": "name",
              "type": "string"
            },
            {
              "internalType": "string",
              "name": "serial",
              "type": "string"
            },
            {
              "internalType": "uint256",
              "name": "productiondate",
              "type": "uint256"
            },
            {
              "internalType": "uint256",
              "name": "expiredate",
              "type": "uint256"
            },
            {
              "internalType": "uint256",
              "name": "manfiactorid",
              "type": "uint256"
            },
            {
              "internalType": "uint256",
              "name": "parmacyid",
              "type": "uint256"
            }
          ],
          "internalType": "struct Pharmacy.Medicien",
          "name": "_medicien",
          "type": "tuple"
        }
      ],
      "payable": false,
      "stateMutability": "view",
      "type": "function"
    },
    {
      "constant": false,
      "inputs": [
        {
          "internalType": "string",
          "name": "_name",
          "type": "string"
        },
        {
          "internalType": "string",
          "name": "_serial",
          "type": "string"
        },
        {
          "internalType": "uint256",
          "name": "profuction",
          "type": "uint256"
        },
        {
          "internalType": "uint256",
          "name": "expire",
          "type": "uint256"
        },
        {
          "internalType": "uint256",
          "name": "manfiactorid",
          "type": "uint256"
        },
        {
          "internalType": "uint256",
          "name": "pharma",
          "type": "uint256"
        }
      ],
      "name": "addmedicen",
      "outputs": [],
      "payable": false,
      "stateMutability": "nonpayable",
      "type": "function"
    },
    {
      "constant": true,
      "inputs": [
        {
          "internalType": "string",
          "name": "username",
          "type": "string"
        },
        {
          "internalType": "string",
          "name": "password",
          "type": "string"
        }
      ],
      "name": "login",
      "outputs": [
        {
          "components": [
            {
              "internalType": "uint256",
              "name": "userid",
              "type": "uint256"
            },
            {
              "internalType": "bool",
              "name": "deleted",
              "type": "bool"
            },
            {
              "internalType": "string",
              "name": "username",
              "type": "string"
            },
            {
              "internalType": "string",
              "name": "password",
              "type": "string"
            },
            {
              "internalType": "string",
              "name": "name",
              "type": "string"
            }
          ],
          "internalType": "struct Pharmacy.User",
          "name": "user",
          "type": "tuple"
        }
      ],
      "payable": false,
      "stateMutability": "view",
      "type": "function"
    },
    {
      "constant": false,
      "inputs": [
        {
          "internalType": "string",
          "name": "username",
          "type": "string"
        },
        {
          "internalType": "string",
          "name": "password",
          "type": "string"
        },
        {
          "internalType": "string",
          "name": "name",
          "type": "string"
        }
      ],
      "name": "regiter",
      "outputs": [],
      "payable": false,
      "stateMutability": "nonpayable",
      "type": "function"
    }
  ],
  "bytecode": "0x608060405234801561001057600080fd5b50600160068190555060016007819055506001600581905550612d81806100386000396000f3fe608060405234801561001057600080fd5b50600436106101215760003560e01c80638ac7d79c116100ad578063b0d317a011610071578063b0d317a014610336578063b13d4a8014610352578063bd7d58fa14610388578063f7d34e21146103be578063ff35cd54146103da57610121565b80638ac7d79c1461029157806398a6bbb7146102ad578063a85c38ef146102c9578063a8a8492f146102fe578063ac42473c1461031a57610121565b806358467dbc116100f457806358467dbc146101c25780635b581a37146101f25780636c640f7d14610210578063750cf32b1461024557806380af08901461027557610121565b806302553f7e1461012657806333dac29714610156578063365b98b2146101725780634a8038b6146101a6575b600080fd5b610140600480360361013b9190810190612476565b6103f8565b60405161014d9190612a11565b60405180910390f35b610170600480360361016b919081019061249f565b610695565b005b61018c60048036036101879190810190612476565b610779565b60405161019d959493929190612a55565b60405180910390f35b6101c060048036036101bb9190810190612476565b610991565b005b6101dc60048036036101d791908101906122ba565b610ab7565b6040516101e99190612a33565b60405180910390f35b6101fa610f36565b60405161020791906129ef565b60405180910390f35b61022a60048036036102259190810190612476565b610ff3565b60405161023c96959493929190612b3a565b60405180910390f35b61025f600480360361025a9190810190612279565b611056565b60405161026c9190612a11565b60405180910390f35b61028f600480360361028a9190810190612476565b611344565b005b6102ab60048036036102a69190810190612476565b61146a565b005b6102c760048036036102c291908101906123bd565b6114ec565b005b6102e360048036036102de9190810190612476565b6115f9565b6040516102f596959493929190612b3a565b60405180910390f35b61031860048036036103139190810190612326565b61165c565b005b610334600480360361032f9190810190612476565b611777565b005b610350600480360361034b9190810190612476565b6117f9565b005b61036c60048036036103679190810190612476565b61191f565b60405161037f9796959493929190612abd565b60405180910390f35b6103a2600480360361039d9190810190612476565b611a9e565b6040516103b59796959493929190612abd565b60405180910390f35b6103d860048036036103d39190810190612476565b611c1d565b005b6103e2611d43565b6040516103ef91906129cd565b60405180910390f35b610400611f18565b60008090505b6001805490508110156105ea57826001828154811061042157fe5b90600052602060002090600702016000015414156105dd576001818154811061044657fe5b90600052602060002090600702016040518060e001604052908160008201548152602001600182018054600181600116156101000203166002900480601f0160208091040260200160405190810160405280929190818152602001828054600181600116156101000203166002900480156105025780601f106104d757610100808354040283529160200191610502565b820191906000526020600020905b8154815290600101906020018083116104e557829003601f168201915b50505050508152602001600282018054600181600116156101000203166002900480601f0160208091040260200160405190810160405280929190818152602001828054600181600116156101000203166002900480156105a45780601f10610579576101008083540402835291602001916105a4565b820191906000526020600020905b81548152906001019060200180831161058757829003601f168201915b50505050508152602001600382015481526020016004820154815260200160058201548152602001600682015481525050915050610690565b8080600101915050610406565b506040518060e00160405280600081526020016040518060400160405280600481526020017f6e756c6c0000000000000000000000000000000000000000000000000000000081525081526020016040518060400160405280600481526020017f6e756c6c000000000000000000000000000000000000000000000000000000008152508152602001600081526020016000815260200160008152602001600081525090505b919050565b60036040518060c0016040528060075481526020018581526020016000151581526020016000151581526020018481526020018381525090806001815401808255809150509060018203906000526020600020906005020160009091929091909150600082015181600001556020820151816001015560408201518160020160006101000a81548160ff02191690831515021790555060608201518160020160016101000a81548160ff0219169083151502179055506080820151816003015560a08201518160040155505050600760008154809291906001019190505550505050565b6000818154811061078657fe5b90600052602060002090600502016000915090508060000154908060010160009054906101000a900460ff1690806002018054600181600116156101000203166002900480601f01602080910402602001604051908101604052809291908181526020018280546001816001161561010002031660029004801561084b5780601f106108205761010080835404028352916020019161084b565b820191906000526020600020905b81548152906001019060200180831161082e57829003601f168201915b505050505090806003018054600181600116156101000203166002900480601f0160208091040260200160405190810160405280929190818152602001828054600181600116156101000203166002900480156108e95780601f106108be576101008083540402835291602001916108e9565b820191906000526020600020905b8154815290600101906020018083116108cc57829003601f168201915b505050505090806004018054600181600116156101000203166002900480601f0160208091040260200160405190810160405280929190818152602001828054600181600116156101000203166002900480156109875780601f1061095c57610100808354040283529160200191610987565b820191906000526020600020905b81548152906001019060200180831161096a57829003601f168201915b5050505050905085565b6002600061099f9190611f55565b60008090505b600180549050811015610ab35781600182815481106109c057fe5b9060005260206000209060070201600601541415610aa6576002600182815481106109e757fe5b9060005260206000209060070201908060018154018082558091505090600182039060005260206000209060070201600090919290919091506000820154816000015560018201816001019080546001816001161561010002031660029004610a51929190611f79565b5060028201816002019080546001816001161561010002031660029004610a79929190611f79565b50600382015481600301556004820154816004015560058201548160050155600682015481600601555050505b80806001019150506109a5565b5050565b610abf612000565b600080905060008090505b600080549050811015610e4e5784604051602001610ae8919061299f565b6040516020818303038152906040528051906020012060001c60008281548110610b0e57fe5b9060005260206000209060050201600201604051602001610b2f91906129b6565b6040516020818303038152906040528051906020012060001c148015610bc3575083604051602001610b61919061299f565b6040516020818303038152906040528051906020012060001c60008281548110610b8757fe5b9060005260206000209060050201600301604051602001610ba891906129b6565b6040516020818303038152906040528051906020012060001c145b8015610bfe57506000151560008281548110610bdb57fe5b906000526020600020906005020160010160009054906101000a900460ff161515145b15610e41576001915060008181548110610c1457fe5b90600052602060002090600502016040518060a0016040529081600082015481526020016001820160009054906101000a900460ff16151515158152602001600282018054600181600116156101000203166002900480601f016020809104026020016040519081016040528092919081815260200182805460018160011615610100020316600290048015610ceb5780601f10610cc057610100808354040283529160200191610ceb565b820191906000526020600020905b815481529060010190602001808311610cce57829003601f168201915b50505050508152602001600382018054600181600116156101000203166002900480601f016020809104026020016040519081016040528092919081815260200182805460018160011615610100020316600290048015610d8d5780601f10610d6257610100808354040283529160200191610d8d565b820191906000526020600020905b815481529060010190602001808311610d7057829003601f168201915b50505050508152602001600482018054600181600116156101000203166002900480601f016020809104026020016040519081016040528092919081815260200182805460018160011615610100020316600290048015610e2f5780601f10610e0457610100808354040283529160200191610e2f565b820191906000526020600020905b815481529060010190602001808311610e1257829003601f168201915b50505050508152505092505050610f30565b8080600101915050610aca565b50600015158115151415610f2e576040518060a00160405280600081526020016001151581526020016040518060400160405280600481526020017f6e756c6c0000000000000000000000000000000000000000000000000000000081525081526020016040518060400160405280600481526020017f6e756c6c0000000000000000000000000000000000000000000000000000000081525081526020016040518060400160405280600481526020017f6e756c6c00000000000000000000000000000000000000000000000000000000815250815250915050610f30565b505b92915050565b60606004805480602002602001604051908101604052809291908181526020016000905b82821015610fea57838290600052602060002090600502016040518060c001604052908160008201548152602001600182015481526020016002820160009054906101000a900460ff161515151581526020016002820160019054906101000a900460ff161515151581526020016003820154815260200160048201548152505081526020019060010190610f5a565b50505050905090565b6004818154811061100057fe5b90600052602060002090600502016000915090508060000154908060010154908060020160009054906101000a900460ff16908060020160019054906101000a900460ff16908060030154908060040154905086565b61105e611f18565b60008090505b6001805490508110156112995782604051602001611082919061299f565b6040516020818303038152906040528051906020012060001c600182815481106110a857fe5b90600052602060002090600702016002016040516020016110c991906129b6565b6040516020818303038152906040528051906020012060001c141561128c57600181815481106110f557fe5b90600052602060002090600702016040518060e001604052908160008201548152602001600182018054600181600116156101000203166002900480601f0160208091040260200160405190810160405280929190818152602001828054600181600116156101000203166002900480156111b15780601f10611186576101008083540402835291602001916111b1565b820191906000526020600020905b81548152906001019060200180831161119457829003601f168201915b50505050508152602001600282018054600181600116156101000203166002900480601f0160208091040260200160405190810160405280929190818152602001828054600181600116156101000203166002900480156112535780601f1061122857610100808354040283529160200191611253565b820191906000526020600020905b81548152906001019060200180831161123657829003601f168201915b5050505050815260200160038201548152602001600482015481526020016005820154815260200160068201548152505091505061133f565b8080600101915050611064565b506040518060e00160405280600081526020016040518060400160405280600481526020017f6e756c6c0000000000000000000000000000000000000000000000000000000081525081526020016040518060400160405280600481526020017f6e756c6c000000000000000000000000000000000000000000000000000000008152508152602001600081526020016000815260200160008152602001600081525090505b919050565b600460006113529190612031565b60008090505b60038054905081101561146657816003828154811061137357fe5b90600052602060002090600502016004015414156114595760046003828154811061139a57fe5b90600052602060002090600502019080600181540180825580915050906001820390600052602060002090600502016000909192909190915060008201548160000155600182015481600101556002820160009054906101000a900460ff168160020160006101000a81548160ff0219169083151502179055506002820160019054906101000a900460ff168160020160016101000a81548160ff02191690831515021790555060038201548160030155600482015481600401555050505b8080600101915050611358565b5050565b60008090505b6003805490508110156114e857816003828154811061148b57fe5b90600052602060002090600502016000015414156114db576001600382815481106114b257fe5b906000526020600020906005020160020160006101000a81548160ff0219169083151502179055505b8080600101915050611470565b5050565b6114f4611f18565b6114fd86611056565b90506000816000015114156115f05760016040518060e0016040528060065481526020018981526020018881526020018781526020018681526020018581526020018481525090806001815401808255809150509060018203906000526020600020906007020160009091929091909150600082015181600001556020820151816001019080519060200190611594929190612055565b5060408201518160020190805190602001906115b1929190612055565b50606082015181600301556080820151816004015560a0820151816005015560c082015181600601555050506006600081548092919060010191905055505b50505050505050565b6003818154811061160657fe5b90600052602060002090600502016000915090508060000154908060010154908060020160009054906101000a900460ff16908060020160019054906101000a900460ff16908060030154908060040154905086565b611664612000565b61166e8484610ab7565b9050600115158160200151151514156117715760006040518060a00160405280600554815260200160001515815260200186815260200185815260200184815250908060018154018082558091505090600182039060005260206000209060050201600090919290919091506000820151816000015560208201518160010160006101000a81548160ff0219169083151502179055506040820151816002019080519060200190611720929190612055565b50606082015181600301908051906020019061173d929190612055565b50608082015181600401908051906020019061175a929190612055565b505050506005600081548092919060010191905055505b50505050565b60008090505b6003805490508110156117f557816003828154811061179857fe5b90600052602060002090600502016000015414156117e8576001600382815481106117bf57fe5b906000526020600020906005020160020160016101000a81548160ff0219169083151502179055505b808060010191505061177d565b5050565b600460006118079190612031565b60008090505b60038054905081101561191b57816003828154811061182857fe5b906000526020600020906005020160030154141561190e5760046003828154811061184f57fe5b90600052602060002090600502019080600181540180825580915050906001820390600052602060002090600502016000909192909190915060008201548160000155600182015481600101556002820160009054906101000a900460ff168160020160006101000a81548160ff0219169083151502179055506002820160019054906101000a900460ff168160020160016101000a81548160ff02191690831515021790555060038201548160030155600482015481600401555050505b808060010191505061180d565b5050565b6002818154811061192c57fe5b9060005260206000209060070201600091509050806000015490806001018054600181600116156101000203166002900480601f0160208091040260200160405190810160405280929190818152602001828054600181600116156101000203166002900480156119de5780601f106119b3576101008083540402835291602001916119de565b820191906000526020600020905b8154815290600101906020018083116119c157829003601f168201915b505050505090806002018054600181600116156101000203166002900480601f016020809104026020016040519081016040528092919081815260200182805460018160011615610100020316600290048015611a7c5780601f10611a5157610100808354040283529160200191611a7c565b820191906000526020600020905b815481529060010190602001808311611a5f57829003601f168201915b5050505050908060030154908060040154908060050154908060060154905087565b60018181548110611aab57fe5b9060005260206000209060070201600091509050806000015490806001018054600181600116156101000203166002900480601f016020809104026020016040519081016040528092919081815260200182805460018160011615610100020316600290048015611b5d5780601f10611b3257610100808354040283529160200191611b5d565b820191906000526020600020905b815481529060010190602001808311611b4057829003601f168201915b505050505090806002018054600181600116156101000203166002900480601f016020809104026020016040519081016040528092919081815260200182805460018160011615610100020316600290048015611bfb5780601f10611bd057610100808354040283529160200191611bfb565b820191906000526020600020905b815481529060010190602001808311611bde57829003601f168201915b5050505050908060030154908060040154908060050154908060060154905087565b60046000611c2b9190612031565b60008090505b600380549050811015611d3f578160018281548110611c4c57fe5b9060005260206000209060070201600501541415611d3257600460038281548110611c7357fe5b90600052602060002090600502019080600181540180825580915050906001820390600052602060002090600502016000909192909190915060008201548160000155600182015481600101556002820160009054906101000a900460ff168160020160006101000a81548160ff0219169083151502179055506002820160019054906101000a900460ff168160020160016101000a81548160ff02191690831515021790555060038201548160030155600482015481600401555050505b8080600101915050611c31565b5050565b60606002805480602002602001604051908101604052809291908181526020016000905b82821015611f0f57838290600052602060002090600702016040518060e001604052908160008201548152602001600182018054600181600116156101000203166002900480601f016020809104026020016040519081016040528092919081815260200182805460018160011615610100020316600290048015611e2d5780601f10611e0257610100808354040283529160200191611e2d565b820191906000526020600020905b815481529060010190602001808311611e1057829003601f168201915b50505050508152602001600282018054600181600116156101000203166002900480601f016020809104026020016040519081016040528092919081815260200182805460018160011615610100020316600290048015611ecf5780601f10611ea457610100808354040283529160200191611ecf565b820191906000526020600020905b815481529060010190602001808311611eb257829003601f168201915b5050505050815260200160038201548152602001600482015481526020016005820154815260200160068201548152505081526020019060010190611d67565b50505050905090565b6040518060e00160405280600081526020016060815260200160608152602001600081526020016000815260200160008152602001600081525090565b5080546000825560070290600052602060002090810190611f7691906120d5565b50565b828054600181600116156101000203166002900490600052602060002090601f016020900481019282601f10611fb25780548555611fef565b82800160010185558215611fef57600052602060002091601f016020900482015b82811115611fee578254825591600101919060010190611fd3565b5b509050611ffc919061213c565b5090565b6040518060a00160405280600081526020016000151581526020016060815260200160608152602001606081525090565b50805460008255600502906000526020600020908101906120529190612161565b50565b828054600181600116156101000203166002900490600052602060002090601f016020900481019282601f1061209657805160ff19168380011785556120c4565b828001600101855582156120c4579182015b828111156120c35782518255916020019190600101906120a8565b5b5090506120d1919061213c565b5090565b61213991905b80821115612135576000808201600090556001820160006120fc91906121c8565b60028201600061210c91906121c8565b6003820160009055600482016000905560058201600090556006820160009055506007016120db565b5090565b90565b61215e91905b8082111561215a576000816000905550600101612142565b5090565b90565b6121c591905b808211156121c15760008082016000905560018201600090556002820160006101000a81549060ff02191690556002820160016101000a81549060ff02191690556003820160009055600482016000905550600501612167565b5090565b90565b50805460018160011615610100020316600290046000825580601f106121ee575061220d565b601f01602090049060005260206000209081019061220c919061213c565b5b50565b600082601f83011261222157600080fd5b813561223461222f82612bc8565b612b9b565b9150808252602083016020830185838301111561225057600080fd5b61225b838284612cd4565b50505092915050565b60008135905061227381612d27565b92915050565b60006020828403121561228b57600080fd5b600082013567ffffffffffffffff8111156122a557600080fd5b6122b184828501612210565b91505092915050565b600080604083850312156122cd57600080fd5b600083013567ffffffffffffffff8111156122e757600080fd5b6122f385828601612210565b925050602083013567ffffffffffffffff81111561231057600080fd5b61231c85828601612210565b9150509250929050565b60008060006060848603121561233b57600080fd5b600084013567ffffffffffffffff81111561235557600080fd5b61236186828701612210565b935050602084013567ffffffffffffffff81111561237e57600080fd5b61238a86828701612210565b925050604084013567ffffffffffffffff8111156123a757600080fd5b6123b386828701612210565b9150509250925092565b60008060008060008060c087890312156123d657600080fd5b600087013567ffffffffffffffff8111156123f057600080fd5b6123fc89828a01612210565b965050602087013567ffffffffffffffff81111561241957600080fd5b61242589828a01612210565b955050604061243689828a01612264565b945050606061244789828a01612264565b935050608061245889828a01612264565b92505060a061246989828a01612264565b9150509295509295509295565b60006020828403121561248857600080fd5b600061249684828501612264565b91505092915050565b6000806000606084860312156124b457600080fd5b60006124c286828701612264565b93505060206124d386828701612264565b92505060406124e486828701612264565b9150509250925092565b60006124fa83836127df565b905092915050565b600061250e8383612882565b60c08301905092915050565b600061252582612c29565b61252f8185612c6f565b93508360208202850161254185612bf4565b8060005b8581101561257d578484038952815161255e85826124ee565b945061256983612c55565b925060208a01995050600181019050612545565b50829750879550505050505092915050565b600061259a82612c34565b6125a48185612c80565b93506125af83612c04565b8060005b838110156125e05781516125c78882612502565b97506125d283612c62565b9250506001810190506125b3565b5085935050505092915050565b6125f681612cbe565b82525050565b61260581612cbe565b82525050565b600061261682612c4a565b6126208185612cb3565b9350612630818560208601612ce3565b80840191505092915050565b600061264782612c3f565b6126518185612c91565b9350612661818560208601612ce3565b61266a81612d16565b840191505092915050565b600061268082612c3f565b61268a8185612ca2565b935061269a818560208601612ce3565b6126a381612d16565b840191505092915050565b6000815460018116600081146126cb57600181146126f057612734565b607f60028304166126dc8187612cb3565b955060ff1983168652808601935050612734565b600282046126fe8187612cb3565b955061270985612c14565b60005b8281101561272b5781548189015260018201915060208101905061270c565b82880195505050505b505092915050565b600060e0830160008301516127546000860182612981565b506020830151848203602086015261276c828261263c565b91505060408301518482036040860152612786828261263c565b915050606083015161279b6060860182612981565b5060808301516127ae6080860182612981565b5060a08301516127c160a0860182612981565b5060c08301516127d460c0860182612981565b508091505092915050565b600060e0830160008301516127f76000860182612981565b506020830151848203602086015261280f828261263c565b91505060408301518482036040860152612829828261263c565b915050606083015161283e6060860182612981565b5060808301516128516080860182612981565b5060a083015161286460a0860182612981565b5060c083015161287760c0860182612981565b508091505092915050565b60c0820160008201516128986000850182612981565b5060208201516128ab6020850182612981565b5060408201516128be60408501826125ed565b5060608201516128d160608501826125ed565b5060808201516128e46080850182612981565b5060a08201516128f760a0850182612981565b50505050565b600060a0830160008301516129156000860182612981565b50602083015161292860208601826125ed565b5060408301518482036040860152612940828261263c565b9150506060830151848203606086015261295a828261263c565b91505060808301518482036080860152612974828261263c565b9150508091505092915050565b61298a81612cca565b82525050565b61299981612cca565b82525050565b60006129ab828461260b565b915081905092915050565b60006129c282846126ae565b915081905092915050565b600060208201905081810360008301526129e7818461251a565b905092915050565b60006020820190508181036000830152612a09818461258f565b905092915050565b60006020820190508181036000830152612a2b818461273c565b905092915050565b60006020820190508181036000830152612a4d81846128fd565b905092915050565b600060a082019050612a6a6000830188612990565b612a7760208301876125fc565b8181036040830152612a898186612675565b90508181036060830152612a9d8185612675565b90508181036080830152612ab18184612675565b90509695505050505050565b600060e082019050612ad2600083018a612990565b8181036020830152612ae48189612675565b90508181036040830152612af88188612675565b9050612b076060830187612990565b612b146080830186612990565b612b2160a0830185612990565b612b2e60c0830184612990565b98975050505050505050565b600060c082019050612b4f6000830189612990565b612b5c6020830188612990565b612b6960408301876125fc565b612b7660608301866125fc565b612b836080830185612990565b612b9060a0830184612990565b979650505050505050565b6000604051905081810181811067ffffffffffffffff82111715612bbe57600080fd5b8060405250919050565b600067ffffffffffffffff821115612bdf57600080fd5b601f19601f8301169050602081019050919050565b6000819050602082019050919050565b6000819050602082019050919050565b60008190508160005260206000209050919050565b600081519050919050565b600081519050919050565b600081519050919050565b600081519050919050565b6000602082019050919050565b6000602082019050919050565b600082825260208201905092915050565b600082825260208201905092915050565b600082825260208201905092915050565b600082825260208201905092915050565b600081905092915050565b60008115159050919050565b6000819050919050565b82818337600083830152505050565b60005b83811015612d01578082015181840152602081019050612ce6565b83811115612d10576000848401525b50505050565b6000601f19601f8301169050919050565b612d3081612cca565b8114612d3b57600080fd5b5056fea365627a7a72315820291c11a39bf77660fb91e5f4167aca99a2e9f9a296a65f845153a0d5faafb40b6c6578706572696d656e74616cf564736f6c63430005100040",
  "source": "// SPDX-License-Identifier: MIT\r\npragma solidity ^0.5.16;\r\n\r\npragma experimental ABIEncoderV2;\r\n\r\n/** \r\n * @title Ballot\r\n * @dev Implements voting process along with vote delegation\r\n */\r\ncontract Pharmacy {\r\n   \r\n    struct Medicien {\r\n        uint id; // weight is accumulated by delegation\r\n        string name; \r\n        string serial;  // index of the voted proposal\r\n        uint productiondate;\r\n        uint expiredate;\r\n        uint manfiactorid;\r\n        uint parmacyid;\r\n    }\r\n    \r\n    struct Order{\r\n        uint orderid;\r\n        uint medicienid;\r\n        bool confirmed;\r\n        bool recieved;\r\n        uint manfiactorid;\r\n        uint parmacyid;\r\n    }\r\n    struct User {\r\n        uint userid; // weight is accumulated by delegation\r\n        bool deleted;  // if true, that person already voted\r\n        string username; \r\n        string password;  // index of the voted proposal\r\n        string name;\r\n    }\r\n    \r\n    User[] public users;\r\n    \r\n    \r\n    Medicien[] public mediciences;\r\n    Medicien[] public _Seachmedi;\r\n    Order[] public orders;\r\n    Order[] public _SearchOrders;\r\n    uint _userid;\r\n    uint _medid;\r\n    uint _orderid;\r\n    constructor()public{\r\n        _medid=1;\r\n        _orderid=1;\r\n        _userid=1;\r\n    }\r\n    /////////////////////////////////////////////////////////Order////////////////////////////////////\r\n    function getOrderbypharma(uint _pharmaid) public {\r\n        delete _SearchOrders;\r\n        for (uint i = 0; i < orders.length; i++) {\r\n            if(orders[i].parmacyid==_pharmaid){\r\n                _SearchOrders.push( orders[i]);\r\n            }\r\n        }\r\n    }\r\n    function getOrderbymanfi(uint _manficid) public {\r\n        delete _SearchOrders;\r\n        for (uint i = 0; i < orders.length; i++) {\r\n            if(mediciences[i].manfiactorid==_manficid){\r\n                _SearchOrders.push( orders[i]);\r\n            }\r\n        }\r\n    }\r\n    function SSgetOrderbypharma(uint _pharmaid) public {\r\n        delete _SearchOrders;\r\n        for (uint i = 0; i < orders.length; i++) {\r\n            if(orders[i].manfiactorid==_pharmaid){\r\n                _SearchOrders.push( orders[i]);\r\n            }\r\n        }\r\n    }\r\n    \r\n     function addOrder(uint medicienid,uint manfiactorid,uint parmacyid)public{\r\n            orders.push(Order({\r\n                orderid:_orderid,\r\n                medicienid:medicienid,\r\n                manfiactorid:manfiactorid,\r\n                parmacyid:parmacyid,\r\n                confirmed:false,\r\n                recieved:false\r\n            }));\r\n            _orderid++;\r\n    }\r\n    \r\n    function confirmOrder(uint orderid)public{\r\n        for (uint i = 0; i < orders.length; i++) {\r\n            if(orders[i].orderid==orderid){\r\n                orders[i].confirmed=true;\r\n            }\r\n        }\r\n    }\r\n   \r\n    function recieveOrder(uint orderid)public{\r\n        for (uint i = 0; i < orders.length; i++) {\r\n            if(orders[i].orderid==orderid){\r\n                orders[i].recieved=true;\r\n            }\r\n        }\r\n    }\r\n    \r\n     function returnSearchedOrderData() public view returns(Order[] memory _medicien){\r\n         return _SearchOrders;\r\n     }\r\n     \r\n     //////////////////////////////////////////////////////////medicien///////////////////////////////////////////\r\n     function getmedicienbyPharma(uint _pharmaid) public {\r\n        delete _Seachmedi;\r\n        for (uint i = 0; i < mediciences.length; i++) {\r\n            if(mediciences[i].parmacyid==_pharmaid){\r\n                _Seachmedi.push(mediciences[i]);\r\n            }\r\n        }\r\n    }\r\n     function returnSearchedMedicienData() public view returns(Medicien[] memory _medicien){\r\n         return _Seachmedi;\r\n     }\r\n    \r\n    function getmedicien(uint id) public view returns(Medicien memory _medicien){\r\n        for (uint i = 0; i < mediciences.length; i++) {\r\n            if(mediciences[i].id==id){\r\n                return(mediciences[i]);\r\n            }\r\n        }\r\n        return Medicien({\r\n            name:\"null\",\r\n            id:0,\r\n            serial:\"null\",\r\n            productiondate:0,\r\n            expiredate:0,\r\n            manfiactorid:0,\r\n            parmacyid:0\r\n        });\r\n    }\r\n    \r\n    function getmedicien_serial(string memory seial) public view returns(Medicien memory _medicien){\r\n        for (uint i = 0; i < mediciences.length; i++) {\r\n            if(uint(keccak256(abi.encodePacked((mediciences[i].serial))))==uint(keccak256(abi.encodePacked((seial))))){\r\n                return(mediciences[i]);\r\n            }\r\n        }\r\n        return Medicien({\r\n            name:\"null\",\r\n            id:0,\r\n            serial:\"null\",\r\n            productiondate:0,\r\n            expiredate:0,\r\n            manfiactorid:0,\r\n            parmacyid:0\r\n        });\r\n    }\r\n    \r\n    function addmedicen(string memory _name,string memory _serial,uint profuction,uint expire,uint manfiactorid,uint pharma)public{\r\n        Medicien memory med=getmedicien_serial(_serial);\r\n        if(med.id==0){\r\n            mediciences.push(Medicien({\r\n                id:_medid,\r\n                name:_name,\r\n                serial:_serial,\r\n                productiondate:profuction,\r\n                expiredate:expire,\r\n                manfiactorid:manfiactorid,\r\n                parmacyid:pharma\r\n            }));\r\n            _medid++;\r\n        }\r\n    }\r\n    \r\n    \r\n    \r\n    //////////////////////////////////////////////////////User///////////////////////////////////////////\r\n      function login(string memory  username,string memory  password) public view returns(User memory user){\r\n        bool find=false;\r\n        for (uint i = 0; i < users.length; i++) {\r\n            if(uint(keccak256(abi.encodePacked((users[i].username))))==uint(keccak256(abi.encodePacked((username)))) && uint(keccak256(abi.encodePacked((users[i].password)))) ==uint(keccak256(abi.encodePacked((password)))) && users[i].deleted==false){\r\n                find=true;\r\n                return users[i];\r\n            }\r\n        }\r\n        \r\n        if(find==false)\r\n            return User({\r\n                userid:0,\r\n                deleted:true,\r\n                name:\"null\",\r\n                username:\"null\",\r\n                password:\"null\"\r\n            });\r\n    }\r\n    \r\n    function regiter(string memory username,string memory password,string memory name)public{\r\n        User memory user=login(username,password);\r\n        if(user.deleted==true){\r\n            users.push(User({\r\n                userid:_userid,\r\n                deleted:false,\r\n                name:name,\r\n                username:username,\r\n                password:password\r\n            }));\r\n            _userid++;\r\n        }\r\n    }\r\n}",
  "sourcePath": "D:/Projects/GP/contracts/Pharmacy.sol",
  "compiler": {
    "name": "solc",
    "version": "0.5.16+commit.9c3226ce.Emscripten.clang"
  },
  "schemaVersion": "3.3.4",
  "updatedAt": "2021-04-12T11:29:35.008Z",
  "networkType": "ethereum",
  "devdoc": {
    "details": "Implements voting process along with vote delegation",
    "methods": {},
    "title": "Ballot"
  },
  "userdoc": {
    "methods": {
      "getOrderbypharma(uint256)": {
        "notice": "//////////////////////////////////////////////////////Order////////////////////////////////////"
      },
      "getmedicienbyPharma(uint256)": {
        "notice": "///////////////////////////////////////////////////////medicien///////////////////////////////////////////"
      },
      "login(string,string)": {
        "notice": "///////////////////////////////////////////////////User///////////////////////////////////////////"
      }
    }
  }
}