{
  "contractName": "Pharmacy",
  "abi": [
    {
      "inputs": [],
      "payable": false,
      "stateMutability": "nonpayable",
      "type": "constructor"
    },
    {
      "constant": true,
      "inputs": [
        {
          "internalType": "uint256",
          "name": "",
          "type": "uint256"
        }
      ],
      "name": "_Seachmedi",
      "outputs": [
        {
          "internalType": "uint256",
          "name": "id",
          "type": "uint256"
        },
        {
          "internalType": "string",
          "name": "name",
          "type": "string"
        },
        {
          "internalType": "string",
          "name": "serial",
          "type": "string"
        },
        {
          "internalType": "uint256",
          "name": "productiondate",
          "type": "uint256"
        },
        {
          "internalType": "uint256",
          "name": "expiredate",
          "type": "uint256"
        },
        {
          "internalType": "uint256",
          "name": "manfiactorid",
          "type": "uint256"
        },
        {
          "internalType": "uint256",
          "name": "parmacyid",
          "type": "uint256"
        }
      ],
      "payable": false,
      "stateMutability": "view",
      "type": "function"
    },
    {
      "constant": true,
      "inputs": [
        {
          "internalType": "uint256",
          "name": "",
          "type": "uint256"
        }
      ],
      "name": "_SearchOrders",
      "outputs": [
        {
          "internalType": "uint256",
          "name": "orderid",
          "type": "uint256"
        },
        {
          "internalType": "uint256",
          "name": "medicienid",
          "type": "uint256"
        },
        {
          "internalType": "bool",
          "name": "confirmed",
          "type": "bool"
        },
        {
          "internalType": "bool",
          "name": "recieved",
          "type": "bool"
        },
        {
          "internalType": "uint256",
          "name": "manfiactorid",
          "type": "uint256"
        },
        {
          "internalType": "uint256",
          "name": "parmacyid",
          "type": "uint256"
        }
      ],
      "payable": false,
      "stateMutability": "view",
      "type": "function"
    },
    {
      "constant": true,
      "inputs": [
        {
          "internalType": "uint256",
          "name": "",
          "type": "uint256"
        }
      ],
      "name": "mediciences",
      "outputs": [
        {
          "internalType": "uint256",
          "name": "id",
          "type": "uint256"
        },
        {
          "internalType": "string",
          "name": "name",
          "type": "string"
        },
        {
          "internalType": "string",
          "name": "serial",
          "type": "string"
        },
        {
          "internalType": "uint256",
          "name": "productiondate",
          "type": "uint256"
        },
        {
          "internalType": "uint256",
          "name": "expiredate",
          "type": "uint256"
        },
        {
          "internalType": "uint256",
          "name": "manfiactorid",
          "type": "uint256"
        },
        {
          "internalType": "uint256",
          "name": "parmacyid",
          "type": "uint256"
        }
      ],
      "payable": false,
      "stateMutability": "view",
      "type": "function"
    },
    {
      "constant": true,
      "inputs": [
        {
          "internalType": "uint256",
          "name": "",
          "type": "uint256"
        }
      ],
      "name": "orders",
      "outputs": [
        {
          "internalType": "uint256",
          "name": "orderid",
          "type": "uint256"
        },
        {
          "internalType": "uint256",
          "name": "medicienid",
          "type": "uint256"
        },
        {
          "internalType": "bool",
          "name": "confirmed",
          "type": "bool"
        },
        {
          "internalType": "bool",
          "name": "recieved",
          "type": "bool"
        },
        {
          "internalType": "uint256",
          "name": "manfiactorid",
          "type": "uint256"
        },
        {
          "internalType": "uint256",
          "name": "parmacyid",
          "type": "uint256"
        }
      ],
      "payable": false,
      "stateMutability": "view",
      "type": "function"
    },
    {
      "constant": true,
      "inputs": [
        {
          "internalType": "uint256",
          "name": "",
          "type": "uint256"
        }
      ],
      "name": "users",
      "outputs": [
        {
          "internalType": "uint256",
          "name": "userid",
          "type": "uint256"
        },
        {
          "internalType": "bool",
          "name": "deleted",
          "type": "bool"
        },
        {
          "internalType": "string",
          "name": "username",
          "type": "string"
        },
        {
          "internalType": "string",
          "name": "password",
          "type": "string"
        },
        {
          "internalType": "string",
          "name": "name",
          "type": "string"
        }
      ],
      "payable": false,
      "stateMutability": "view",
      "type": "function"
    },
    {
      "constant": false,
      "inputs": [
        {
          "internalType": "uint256",
          "name": "_pharmaid",
          "type": "uint256"
        }
      ],
      "name": "getOrderbypharma",
      "outputs": [],
      "payable": false,
      "stateMutability": "nonpayable",
      "type": "function"
    },
    {
      "constant": false,
      "inputs": [
        {
          "internalType": "uint256",
          "name": "_manficid",
          "type": "uint256"
        }
      ],
      "name": "getOrderbymanfi",
      "outputs": [],
      "payable": false,
      "stateMutability": "nonpayable",
      "type": "function"
    },
    {
      "constant": false,
      "inputs": [
        {
          "internalType": "uint256",
          "name": "medicienid",
          "type": "uint256"
        },
        {
          "internalType": "uint256",
          "name": "manfiactorid",
          "type": "uint256"
        },
        {
          "internalType": "uint256",
          "name": "parmacyid",
          "type": "uint256"
        }
      ],
      "name": "addOrder",
      "outputs": [],
      "payable": false,
      "stateMutability": "nonpayable",
      "type": "function"
    },
    {
      "constant": false,
      "inputs": [
        {
          "internalType": "uint256",
          "name": "orderid",
          "type": "uint256"
        }
      ],
      "name": "confirmOrder",
      "outputs": [],
      "payable": false,
      "stateMutability": "nonpayable",
      "type": "function"
    },
    {
      "constant": false,
      "inputs": [
        {
          "internalType": "uint256",
          "name": "orderid",
          "type": "uint256"
        }
      ],
      "name": "recieveOrder",
      "outputs": [],
      "payable": false,
      "stateMutability": "nonpayable",
      "type": "function"
    },
    {
      "constant": true,
      "inputs": [],
      "name": "returnSearchedOrderData",
      "outputs": [
        {
          "components": [
            {
              "internalType": "uint256",
              "name": "orderid",
              "type": "uint256"
            },
            {
              "internalType": "uint256",
              "name": "medicienid",
              "type": "uint256"
            },
            {
              "internalType": "bool",
              "name": "confirmed",
              "type": "bool"
            },
            {
              "internalType": "bool",
              "name": "recieved",
              "type": "bool"
            },
            {
              "internalType": "uint256",
              "name": "manfiactorid",
              "type": "uint256"
            },
            {
              "internalType": "uint256",
              "name": "parmacyid",
              "type": "uint256"
            }
          ],
          "internalType": "struct Pharmacy.Order[]",
          "name": "_medicien",
          "type": "tuple[]"
        }
      ],
      "payable": false,
      "stateMutability": "view",
      "type": "function"
    },
    {
      "constant": false,
      "inputs": [
        {
          "internalType": "uint256",
          "name": "_pharmaid",
          "type": "uint256"
        }
      ],
      "name": "getmedicienbyPharma",
      "outputs": [],
      "payable": false,
      "stateMutability": "nonpayable",
      "type": "function"
    },
    {
      "constant": true,
      "inputs": [],
      "name": "returnSearchedMedicienData",
      "outputs": [
        {
          "components": [
            {
              "internalType": "uint256",
              "name": "id",
              "type": "uint256"
            },
            {
              "internalType": "string",
              "name": "name",
              "type": "string"
            },
            {
              "internalType": "string",
              "name": "serial",
              "type": "string"
            },
            {
              "internalType": "uint256",
              "name": "productiondate",
              "type": "uint256"
            },
            {
              "internalType": "uint256",
              "name": "expiredate",
              "type": "uint256"
            },
            {
              "internalType": "uint256",
              "name": "manfiactorid",
              "type": "uint256"
            },
            {
              "internalType": "uint256",
              "name": "parmacyid",
              "type": "uint256"
            }
          ],
          "internalType": "struct Pharmacy.Medicien[]",
          "name": "_medicien",
          "type": "tuple[]"
        }
      ],
      "payable": false,
      "stateMutability": "view",
      "type": "function"
    },
    {
      "constant": true,
      "inputs": [
        {
          "internalType": "uint256",
          "name": "id",
          "type": "uint256"
        }
      ],
      "name": "getmedicien",
      "outputs": [
        {
          "components": [
            {
              "internalType": "uint256",
              "name": "id",
              "type": "uint256"
            },
            {
              "internalType": "string",
              "name": "name",
              "type": "string"
            },
            {
              "internalType": "string",
              "name": "serial",
              "type": "string"
            },
            {
              "internalType": "uint256",
              "name": "productiondate",
              "type": "uint256"
            },
            {
              "internalType": "uint256",
              "name": "expiredate",
              "type": "uint256"
            },
            {
              "internalType": "uint256",
              "name": "manfiactorid",
              "type": "uint256"
            },
            {
              "internalType": "uint256",
              "name": "parmacyid",
              "type": "uint256"
            }
          ],
          "internalType": "struct Pharmacy.Medicien",
          "name": "_medicien",
          "type": "tuple"
        }
      ],
      "payable": false,
      "stateMutability": "view",
      "type": "function"
    },
    {
      "constant": true,
      "inputs": [
        {
          "internalType": "string",
          "name": "seial",
          "type": "string"
        }
      ],
      "name": "getmedicien_serial",
      "outputs": [
        {
          "components": [
            {
              "internalType": "uint256",
              "name": "id",
              "type": "uint256"
            },
            {
              "internalType": "string",
              "name": "name",
              "type": "string"
            },
            {
              "internalType": "string",
              "name": "serial",
              "type": "string"
            },
            {
              "internalType": "uint256",
              "name": "productiondate",
              "type": "uint256"
            },
            {
              "internalType": "uint256",
              "name": "expiredate",
              "type": "uint256"
            },
            {
              "internalType": "uint256",
              "name": "manfiactorid",
              "type": "uint256"
            },
            {
              "internalType": "uint256",
              "name": "parmacyid",
              "type": "uint256"
            }
          ],
          "internalType": "struct Pharmacy.Medicien",
          "name": "_medicien",
          "type": "tuple"
        }
      ],
      "payable": false,
      "stateMutability": "view",
      "type": "function"
    },
    {
      "constant": false,
      "inputs": [
        {
          "internalType": "string",
          "name": "_name",
          "type": "string"
        },
        {
          "internalType": "string",
          "name": "_serial",
          "type": "string"
        },
        {
          "internalType": "uint256",
          "name": "profuction",
          "type": "uint256"
        },
        {
          "internalType": "uint256",
          "name": "expire",
          "type": "uint256"
        },
        {
          "internalType": "uint256",
          "name": "manfiactorid",
          "type": "uint256"
        },
        {
          "internalType": "uint256",
          "name": "pharma",
          "type": "uint256"
        }
      ],
      "name": "addmedicen",
      "outputs": [],
      "payable": false,
      "stateMutability": "nonpayable",
      "type": "function"
    },
    {
      "constant": true,
      "inputs": [
        {
          "internalType": "string",
          "name": "username",
          "type": "string"
        },
        {
          "internalType": "string",
          "name": "password",
          "type": "string"
        }
      ],
      "name": "login",
      "outputs": [
        {
          "components": [
            {
              "internalType": "uint256",
              "name": "userid",
              "type": "uint256"
            },
            {
              "internalType": "bool",
              "name": "deleted",
              "type": "bool"
            },
            {
              "internalType": "string",
              "name": "username",
              "type": "string"
            },
            {
              "internalType": "string",
              "name": "password",
              "type": "string"
            },
            {
              "internalType": "string",
              "name": "name",
              "type": "string"
            }
          ],
          "internalType": "struct Pharmacy.User",
          "name": "user",
          "type": "tuple"
        }
      ],
      "payable": false,
      "stateMutability": "view",
      "type": "function"
    },
    {
      "constant": false,
      "inputs": [
        {
          "internalType": "string",
          "name": "username",
          "type": "string"
        },
        {
          "internalType": "string",
          "name": "password",
          "type": "string"
        },
        {
          "internalType": "string",
          "name": "name",
          "type": "string"
        }
      ],
      "name": "regiter",
      "outputs": [],
      "payable": false,
      "stateMutability": "nonpayable",
      "type": "function"
    }
  ],
  "bytecode": "0x608060405234801561001057600080fd5b50600160068190555060016007819055506001600581905550612c34806100386000396000f3fe608060405234801561001057600080fd5b50600436106101165760003560e01c80638ac7d79c116100a2578063ac42473c11610071578063ac42473c1461030f578063b13d4a801461032b578063bd7d58fa14610361578063f7d34e2114610397578063ff35cd54146103b357610116565b80638ac7d79c1461028657806398a6bbb7146102a2578063a85c38ef146102be578063a8a8492f146102f357610116565b806358467dbc116100e957806358467dbc146101b75780635b581a37146101e75780636c640f7d14610205578063750cf32b1461023a57806380af08901461026a57610116565b806302553f7e1461011b57806333dac2971461014b578063365b98b2146101675780634a8038b61461019b575b600080fd5b61013560048036036101309190810190612329565b6103d1565b60405161014291906128c4565b60405180910390f35b61016560048036036101609190810190612352565b61066e565b005b610181600480360361017c9190810190612329565b610752565b604051610192959493929190612908565b60405180910390f35b6101b560048036036101b09190810190612329565b61096a565b005b6101d160048036036101cc919081019061216d565b610a90565b6040516101de91906128e6565b60405180910390f35b6101ef610f0f565b6040516101fc91906128a2565b60405180910390f35b61021f600480360361021a9190810190612329565b610fcc565b604051610231969594939291906129ed565b60405180910390f35b610254600480360361024f919081019061212c565b61102f565b60405161026191906128c4565b60405180910390f35b610284600480360361027f9190810190612329565b61131d565b005b6102a0600480360361029b9190810190612329565b611443565b005b6102bc60048036036102b79190810190612270565b6114c5565b005b6102d860048036036102d39190810190612329565b6115d2565b6040516102ea969594939291906129ed565b60405180910390f35b61030d600480360361030891908101906121d9565b611635565b005b61032960048036036103249190810190612329565b611750565b005b61034560048036036103409190810190612329565b6117d2565b6040516103589796959493929190612970565b60405180910390f35b61037b60048036036103769190810190612329565b611951565b60405161038e9796959493929190612970565b60405180910390f35b6103b160048036036103ac9190810190612329565b611ad0565b005b6103bb611bf6565b6040516103c89190612880565b60405180910390f35b6103d9611dcb565b60008090505b6001805490508110156105c35782600182815481106103fa57fe5b90600052602060002090600702016000015414156105b6576001818154811061041f57fe5b90600052602060002090600702016040518060e001604052908160008201548152602001600182018054600181600116156101000203166002900480601f0160208091040260200160405190810160405280929190818152602001828054600181600116156101000203166002900480156104db5780601f106104b0576101008083540402835291602001916104db565b820191906000526020600020905b8154815290600101906020018083116104be57829003601f168201915b50505050508152602001600282018054600181600116156101000203166002900480601f01602080910402602001604051908101604052809291908181526020018280546001816001161561010002031660029004801561057d5780601f106105525761010080835404028352916020019161057d565b820191906000526020600020905b81548152906001019060200180831161056057829003601f168201915b50505050508152602001600382015481526020016004820154815260200160058201548152602001600682015481525050915050610669565b80806001019150506103df565b506040518060e00160405280600081526020016040518060400160405280600481526020017f6e756c6c0000000000000000000000000000000000000000000000000000000081525081526020016040518060400160405280600481526020017f6e756c6c000000000000000000000000000000000000000000000000000000008152508152602001600081526020016000815260200160008152602001600081525090505b919050565b60036040518060c0016040528060075481526020018581526020016000151581526020016000151581526020018481526020018381525090806001815401808255809150509060018203906000526020600020906005020160009091929091909150600082015181600001556020820151816001015560408201518160020160006101000a81548160ff02191690831515021790555060608201518160020160016101000a81548160ff0219169083151502179055506080820151816003015560a08201518160040155505050600760008154809291906001019190505550505050565b6000818154811061075f57fe5b90600052602060002090600502016000915090508060000154908060010160009054906101000a900460ff1690806002018054600181600116156101000203166002900480601f0160208091040260200160405190810160405280929190818152602001828054600181600116156101000203166002900480156108245780601f106107f957610100808354040283529160200191610824565b820191906000526020600020905b81548152906001019060200180831161080757829003601f168201915b505050505090806003018054600181600116156101000203166002900480601f0160208091040260200160405190810160405280929190818152602001828054600181600116156101000203166002900480156108c25780601f10610897576101008083540402835291602001916108c2565b820191906000526020600020905b8154815290600101906020018083116108a557829003601f168201915b505050505090806004018054600181600116156101000203166002900480601f0160208091040260200160405190810160405280929190818152602001828054600181600116156101000203166002900480156109605780601f1061093557610100808354040283529160200191610960565b820191906000526020600020905b81548152906001019060200180831161094357829003601f168201915b5050505050905085565b600260006109789190611e08565b60008090505b600180549050811015610a8c57816001828154811061099957fe5b9060005260206000209060070201600601541415610a7f576002600182815481106109c057fe5b9060005260206000209060070201908060018154018082558091505090600182039060005260206000209060070201600090919290919091506000820154816000015560018201816001019080546001816001161561010002031660029004610a2a929190611e2c565b5060028201816002019080546001816001161561010002031660029004610a52929190611e2c565b50600382015481600301556004820154816004015560058201548160050155600682015481600601555050505b808060010191505061097e565b5050565b610a98611eb3565b600080905060008090505b600080549050811015610e275784604051602001610ac19190612852565b6040516020818303038152906040528051906020012060001c60008281548110610ae757fe5b9060005260206000209060050201600201604051602001610b089190612869565b6040516020818303038152906040528051906020012060001c148015610b9c575083604051602001610b3a9190612852565b6040516020818303038152906040528051906020012060001c60008281548110610b6057fe5b9060005260206000209060050201600301604051602001610b819190612869565b6040516020818303038152906040528051906020012060001c145b8015610bd757506000151560008281548110610bb457fe5b906000526020600020906005020160010160009054906101000a900460ff161515145b15610e1a576001915060008181548110610bed57fe5b90600052602060002090600502016040518060a0016040529081600082015481526020016001820160009054906101000a900460ff16151515158152602001600282018054600181600116156101000203166002900480601f016020809104026020016040519081016040528092919081815260200182805460018160011615610100020316600290048015610cc45780601f10610c9957610100808354040283529160200191610cc4565b820191906000526020600020905b815481529060010190602001808311610ca757829003601f168201915b50505050508152602001600382018054600181600116156101000203166002900480601f016020809104026020016040519081016040528092919081815260200182805460018160011615610100020316600290048015610d665780601f10610d3b57610100808354040283529160200191610d66565b820191906000526020600020905b815481529060010190602001808311610d4957829003601f168201915b50505050508152602001600482018054600181600116156101000203166002900480601f016020809104026020016040519081016040528092919081815260200182805460018160011615610100020316600290048015610e085780601f10610ddd57610100808354040283529160200191610e08565b820191906000526020600020905b815481529060010190602001808311610deb57829003601f168201915b50505050508152505092505050610f09565b8080600101915050610aa3565b50600015158115151415610f07576040518060a00160405280600081526020016001151581526020016040518060400160405280600481526020017f6e756c6c0000000000000000000000000000000000000000000000000000000081525081526020016040518060400160405280600481526020017f6e756c6c0000000000000000000000000000000000000000000000000000000081525081526020016040518060400160405280600481526020017f6e756c6c00000000000000000000000000000000000000000000000000000000815250815250915050610f09565b505b92915050565b60606004805480602002602001604051908101604052809291908181526020016000905b82821015610fc357838290600052602060002090600502016040518060c001604052908160008201548152602001600182015481526020016002820160009054906101000a900460ff161515151581526020016002820160019054906101000a900460ff161515151581526020016003820154815260200160048201548152505081526020019060010190610f33565b50505050905090565b60048181548110610fd957fe5b90600052602060002090600502016000915090508060000154908060010154908060020160009054906101000a900460ff16908060020160019054906101000a900460ff16908060030154908060040154905086565b611037611dcb565b60008090505b600180549050811015611272578260405160200161105b9190612852565b6040516020818303038152906040528051906020012060001c6001828154811061108157fe5b90600052602060002090600702016002016040516020016110a29190612869565b6040516020818303038152906040528051906020012060001c141561126557600181815481106110ce57fe5b90600052602060002090600702016040518060e001604052908160008201548152602001600182018054600181600116156101000203166002900480601f01602080910402602001604051908101604052809291908181526020018280546001816001161561010002031660029004801561118a5780601f1061115f5761010080835404028352916020019161118a565b820191906000526020600020905b81548152906001019060200180831161116d57829003601f168201915b50505050508152602001600282018054600181600116156101000203166002900480601f01602080910402602001604051908101604052809291908181526020018280546001816001161561010002031660029004801561122c5780601f106112015761010080835404028352916020019161122c565b820191906000526020600020905b81548152906001019060200180831161120f57829003601f168201915b50505050508152602001600382015481526020016004820154815260200160058201548152602001600682015481525050915050611318565b808060010191505061103d565b506040518060e00160405280600081526020016040518060400160405280600481526020017f6e756c6c0000000000000000000000000000000000000000000000000000000081525081526020016040518060400160405280600481526020017f6e756c6c000000000000000000000000000000000000000000000000000000008152508152602001600081526020016000815260200160008152602001600081525090505b919050565b6004600061132b9190611ee4565b60008090505b60038054905081101561143f57816003828154811061134c57fe5b90600052602060002090600502016004015414156114325760046003828154811061137357fe5b90600052602060002090600502019080600181540180825580915050906001820390600052602060002090600502016000909192909190915060008201548160000155600182015481600101556002820160009054906101000a900460ff168160020160006101000a81548160ff0219169083151502179055506002820160019054906101000a900460ff168160020160016101000a81548160ff02191690831515021790555060038201548160030155600482015481600401555050505b8080600101915050611331565b5050565b60008090505b6003805490508110156114c157816003828154811061146457fe5b90600052602060002090600502016000015414156114b45760016003828154811061148b57fe5b906000526020600020906005020160020160006101000a81548160ff0219169083151502179055505b8080600101915050611449565b5050565b6114cd611dcb565b6114d68661102f565b90506000816000015114156115c95760016040518060e001604052806006548152602001898152602001888152602001878152602001868152602001858152602001848152509080600181540180825580915050906001820390600052602060002090600702016000909192909190915060008201518160000155602082015181600101908051906020019061156d929190611f08565b50604082015181600201908051906020019061158a929190611f08565b50606082015181600301556080820151816004015560a0820151816005015560c082015181600601555050506006600081548092919060010191905055505b50505050505050565b600381815481106115df57fe5b90600052602060002090600502016000915090508060000154908060010154908060020160009054906101000a900460ff16908060020160019054906101000a900460ff16908060030154908060040154905086565b61163d611eb3565b6116478484610a90565b90506001151581602001511515141561174a5760006040518060a00160405280600554815260200160001515815260200186815260200185815260200184815250908060018154018082558091505090600182039060005260206000209060050201600090919290919091506000820151816000015560208201518160010160006101000a81548160ff02191690831515021790555060408201518160020190805190602001906116f9929190611f08565b506060820151816003019080519060200190611716929190611f08565b506080820151816004019080519060200190611733929190611f08565b505050506005600081548092919060010191905055505b50505050565b60008090505b6003805490508110156117ce57816003828154811061177157fe5b90600052602060002090600502016000015414156117c15760016003828154811061179857fe5b906000526020600020906005020160020160016101000a81548160ff0219169083151502179055505b8080600101915050611756565b5050565b600281815481106117df57fe5b9060005260206000209060070201600091509050806000015490806001018054600181600116156101000203166002900480601f0160208091040260200160405190810160405280929190818152602001828054600181600116156101000203166002900480156118915780601f1061186657610100808354040283529160200191611891565b820191906000526020600020905b81548152906001019060200180831161187457829003601f168201915b505050505090806002018054600181600116156101000203166002900480601f01602080910402602001604051908101604052809291908181526020018280546001816001161561010002031660029004801561192f5780601f106119045761010080835404028352916020019161192f565b820191906000526020600020905b81548152906001019060200180831161191257829003601f168201915b5050505050908060030154908060040154908060050154908060060154905087565b6001818154811061195e57fe5b9060005260206000209060070201600091509050806000015490806001018054600181600116156101000203166002900480601f016020809104026020016040519081016040528092919081815260200182805460018160011615610100020316600290048015611a105780601f106119e557610100808354040283529160200191611a10565b820191906000526020600020905b8154815290600101906020018083116119f357829003601f168201915b505050505090806002018054600181600116156101000203166002900480601f016020809104026020016040519081016040528092919081815260200182805460018160011615610100020316600290048015611aae5780601f10611a8357610100808354040283529160200191611aae565b820191906000526020600020905b815481529060010190602001808311611a9157829003601f168201915b5050505050908060030154908060040154908060050154908060060154905087565b60046000611ade9190611ee4565b60008090505b600380549050811015611bf2578160018281548110611aff57fe5b9060005260206000209060070201600501541415611be557600460038281548110611b2657fe5b90600052602060002090600502019080600181540180825580915050906001820390600052602060002090600502016000909192909190915060008201548160000155600182015481600101556002820160009054906101000a900460ff168160020160006101000a81548160ff0219169083151502179055506002820160019054906101000a900460ff168160020160016101000a81548160ff02191690831515021790555060038201548160030155600482015481600401555050505b8080600101915050611ae4565b5050565b60606002805480602002602001604051908101604052809291908181526020016000905b82821015611dc257838290600052602060002090600702016040518060e001604052908160008201548152602001600182018054600181600116156101000203166002900480601f016020809104026020016040519081016040528092919081815260200182805460018160011615610100020316600290048015611ce05780601f10611cb557610100808354040283529160200191611ce0565b820191906000526020600020905b815481529060010190602001808311611cc357829003601f168201915b50505050508152602001600282018054600181600116156101000203166002900480601f016020809104026020016040519081016040528092919081815260200182805460018160011615610100020316600290048015611d825780601f10611d5757610100808354040283529160200191611d82565b820191906000526020600020905b815481529060010190602001808311611d6557829003601f168201915b5050505050815260200160038201548152602001600482015481526020016005820154815260200160068201548152505081526020019060010190611c1a565b50505050905090565b6040518060e00160405280600081526020016060815260200160608152602001600081526020016000815260200160008152602001600081525090565b5080546000825560070290600052602060002090810190611e299190611f88565b50565b828054600181600116156101000203166002900490600052602060002090601f016020900481019282601f10611e655780548555611ea2565b82800160010185558215611ea257600052602060002091601f016020900482015b82811115611ea1578254825591600101919060010190611e86565b5b509050611eaf9190611fef565b5090565b6040518060a00160405280600081526020016000151581526020016060815260200160608152602001606081525090565b5080546000825560050290600052602060002090810190611f059190612014565b50565b828054600181600116156101000203166002900490600052602060002090601f016020900481019282601f10611f4957805160ff1916838001178555611f77565b82800160010185558215611f77579182015b82811115611f76578251825591602001919060010190611f5b565b5b509050611f849190611fef565b5090565b611fec91905b80821115611fe857600080820160009055600182016000611faf919061207b565b600282016000611fbf919061207b565b600382016000905560048201600090556005820160009055600682016000905550600701611f8e565b5090565b90565b61201191905b8082111561200d576000816000905550600101611ff5565b5090565b90565b61207891905b808211156120745760008082016000905560018201600090556002820160006101000a81549060ff02191690556002820160016101000a81549060ff0219169055600382016000905560048201600090555060050161201a565b5090565b90565b50805460018160011615610100020316600290046000825580601f106120a157506120c0565b601f0160209004906000526020600020908101906120bf9190611fef565b5b50565b600082601f8301126120d457600080fd5b81356120e76120e282612a7b565b612a4e565b9150808252602083016020830185838301111561210357600080fd5b61210e838284612b87565b50505092915050565b60008135905061212681612bda565b92915050565b60006020828403121561213e57600080fd5b600082013567ffffffffffffffff81111561215857600080fd5b612164848285016120c3565b91505092915050565b6000806040838503121561218057600080fd5b600083013567ffffffffffffffff81111561219a57600080fd5b6121a6858286016120c3565b925050602083013567ffffffffffffffff8111156121c357600080fd5b6121cf858286016120c3565b9150509250929050565b6000806000606084860312156121ee57600080fd5b600084013567ffffffffffffffff81111561220857600080fd5b612214868287016120c3565b935050602084013567ffffffffffffffff81111561223157600080fd5b61223d868287016120c3565b925050604084013567ffffffffffffffff81111561225a57600080fd5b612266868287016120c3565b9150509250925092565b60008060008060008060c0878903121561228957600080fd5b600087013567ffffffffffffffff8111156122a357600080fd5b6122af89828a016120c3565b965050602087013567ffffffffffffffff8111156122cc57600080fd5b6122d889828a016120c3565b95505060406122e989828a01612117565b94505060606122fa89828a01612117565b935050608061230b89828a01612117565b92505060a061231c89828a01612117565b9150509295509295509295565b60006020828403121561233b57600080fd5b600061234984828501612117565b91505092915050565b60008060006060848603121561236757600080fd5b600061237586828701612117565b935050602061238686828701612117565b925050604061239786828701612117565b9150509250925092565b60006123ad8383612692565b905092915050565b60006123c18383612735565b60c08301905092915050565b60006123d882612adc565b6123e28185612b22565b9350836020820285016123f485612aa7565b8060005b85811015612430578484038952815161241185826123a1565b945061241c83612b08565b925060208a019950506001810190506123f8565b50829750879550505050505092915050565b600061244d82612ae7565b6124578185612b33565b935061246283612ab7565b8060005b8381101561249357815161247a88826123b5565b975061248583612b15565b925050600181019050612466565b5085935050505092915050565b6124a981612b71565b82525050565b6124b881612b71565b82525050565b60006124c982612afd565b6124d38185612b66565b93506124e3818560208601612b96565b80840191505092915050565b60006124fa82612af2565b6125048185612b44565b9350612514818560208601612b96565b61251d81612bc9565b840191505092915050565b600061253382612af2565b61253d8185612b55565b935061254d818560208601612b96565b61255681612bc9565b840191505092915050565b60008154600181166000811461257e57600181146125a3576125e7565b607f600283041661258f8187612b66565b955060ff19831686528086019350506125e7565b600282046125b18187612b66565b95506125bc85612ac7565b60005b828110156125de578154818901526001820191506020810190506125bf565b82880195505050505b505092915050565b600060e0830160008301516126076000860182612834565b506020830151848203602086015261261f82826124ef565b9150506040830151848203604086015261263982826124ef565b915050606083015161264e6060860182612834565b5060808301516126616080860182612834565b5060a083015161267460a0860182612834565b5060c083015161268760c0860182612834565b508091505092915050565b600060e0830160008301516126aa6000860182612834565b50602083015184820360208601526126c282826124ef565b915050604083015184820360408601526126dc82826124ef565b91505060608301516126f16060860182612834565b5060808301516127046080860182612834565b5060a083015161271760a0860182612834565b5060c083015161272a60c0860182612834565b508091505092915050565b60c08201600082015161274b6000850182612834565b50602082015161275e6020850182612834565b50604082015161277160408501826124a0565b50606082015161278460608501826124a0565b5060808201516127976080850182612834565b5060a08201516127aa60a0850182612834565b50505050565b600060a0830160008301516127c86000860182612834565b5060208301516127db60208601826124a0565b50604083015184820360408601526127f382826124ef565b9150506060830151848203606086015261280d82826124ef565b9150506080830151848203608086015261282782826124ef565b9150508091505092915050565b61283d81612b7d565b82525050565b61284c81612b7d565b82525050565b600061285e82846124be565b915081905092915050565b60006128758284612561565b915081905092915050565b6000602082019050818103600083015261289a81846123cd565b905092915050565b600060208201905081810360008301526128bc8184612442565b905092915050565b600060208201905081810360008301526128de81846125ef565b905092915050565b6000602082019050818103600083015261290081846127b0565b905092915050565b600060a08201905061291d6000830188612843565b61292a60208301876124af565b818103604083015261293c8186612528565b905081810360608301526129508185612528565b905081810360808301526129648184612528565b90509695505050505050565b600060e082019050612985600083018a612843565b81810360208301526129978189612528565b905081810360408301526129ab8188612528565b90506129ba6060830187612843565b6129c76080830186612843565b6129d460a0830185612843565b6129e160c0830184612843565b98975050505050505050565b600060c082019050612a026000830189612843565b612a0f6020830188612843565b612a1c60408301876124af565b612a2960608301866124af565b612a366080830185612843565b612a4360a0830184612843565b979650505050505050565b6000604051905081810181811067ffffffffffffffff82111715612a7157600080fd5b8060405250919050565b600067ffffffffffffffff821115612a9257600080fd5b601f19601f8301169050602081019050919050565b6000819050602082019050919050565b6000819050602082019050919050565b60008190508160005260206000209050919050565b600081519050919050565b600081519050919050565b600081519050919050565b600081519050919050565b6000602082019050919050565b6000602082019050919050565b600082825260208201905092915050565b600082825260208201905092915050565b600082825260208201905092915050565b600082825260208201905092915050565b600081905092915050565b60008115159050919050565b6000819050919050565b82818337600083830152505050565b60005b83811015612bb4578082015181840152602081019050612b99565b83811115612bc3576000848401525b50505050565b6000601f19601f8301169050919050565b612be381612b7d565b8114612bee57600080fd5b5056fea365627a7a72315820efccd7cb53c22e54db81a429e3cb5ae77ad84abb0a32ab0e468dbbbbfd6b91716c6578706572696d656e74616cf564736f6c63430005100040",
  "source": "// SPDX-License-Identifier: MIT\r\npragma solidity ^0.5.16;\r\n\r\npragma experimental ABIEncoderV2;\r\n\r\n/** \r\n * @title Ballot\r\n * @dev Implements voting process along with vote delegation\r\n */\r\ncontract Pharmacy {\r\n   \r\n    struct Medicien {\r\n        uint id; // weight is accumulated by delegation\r\n        string name; \r\n        string serial;  // index of the voted proposal\r\n        uint productiondate;\r\n        uint expiredate;\r\n        uint manfiactorid;\r\n        uint parmacyid;\r\n    }\r\n    \r\n    struct Order{\r\n        uint orderid;\r\n        uint medicienid;\r\n        bool confirmed;\r\n        bool recieved;\r\n        uint manfiactorid;\r\n        uint parmacyid;\r\n    }\r\n    struct User {\r\n        uint userid; // weight is accumulated by delegation\r\n        bool deleted;  // if true, that person already voted\r\n        string username; \r\n        string password;  // index of the voted proposal\r\n        string name;\r\n    }\r\n    \r\n    User[] public users;\r\n    \r\n    \r\n    Medicien[] public mediciences;\r\n    Medicien[] public _Seachmedi;\r\n    Order[] public orders;\r\n    Order[] public _SearchOrders;\r\n    uint _userid;\r\n    uint _medid;\r\n    uint _orderid;\r\n    constructor()public{\r\n        _medid=1;\r\n        _orderid=1;\r\n        _userid=1;\r\n    }\r\n    /////////////////////////////////////////////////////////Order////////////////////////////////////\r\n    function getOrderbypharma(uint _pharmaid) public {\r\n        delete _SearchOrders;\r\n        for (uint i = 0; i < orders.length; i++) {\r\n            if(orders[i].parmacyid==_pharmaid){\r\n                _SearchOrders.push( orders[i]);\r\n            }\r\n        }\r\n    }\r\n    function getOrderbymanfi(uint _manficid) public {\r\n        delete _SearchOrders;\r\n        for (uint i = 0; i < orders.length; i++) {\r\n            if(mediciences[i].manfiactorid==_manficid){\r\n                _SearchOrders.push( orders[i]);\r\n            }\r\n        }\r\n    }\r\n    \r\n     function addOrder(uint medicienid,uint manfiactorid,uint parmacyid)public{\r\n            orders.push(Order({\r\n                orderid:_orderid,\r\n                medicienid:medicienid,\r\n                manfiactorid:manfiactorid,\r\n                parmacyid:parmacyid,\r\n                confirmed:false,\r\n                recieved:false\r\n            }));\r\n            _orderid++;\r\n    }\r\n    \r\n    function confirmOrder(uint orderid)public{\r\n        for (uint i = 0; i < orders.length; i++) {\r\n            if(orders[i].orderid==orderid){\r\n                orders[i].confirmed=true;\r\n            }\r\n        }\r\n    }\r\n   \r\n    function recieveOrder(uint orderid)public{\r\n        for (uint i = 0; i < orders.length; i++) {\r\n            if(orders[i].orderid==orderid){\r\n                orders[i].recieved=true;\r\n            }\r\n        }\r\n    }\r\n    \r\n     function returnSearchedOrderData() public view returns(Order[] memory _medicien){\r\n         return _SearchOrders;\r\n     }\r\n     \r\n     //////////////////////////////////////////////////////////medicien///////////////////////////////////////////\r\n     function getmedicienbyPharma(uint _pharmaid) public {\r\n        delete _Seachmedi;\r\n        for (uint i = 0; i < mediciences.length; i++) {\r\n            if(mediciences[i].parmacyid==_pharmaid){\r\n                _Seachmedi.push(mediciences[i]);\r\n            }\r\n        }\r\n    }\r\n     function returnSearchedMedicienData() public view returns(Medicien[] memory _medicien){\r\n         return _Seachmedi;\r\n     }\r\n    \r\n    function getmedicien(uint id) public view returns(Medicien memory _medicien){\r\n        for (uint i = 0; i < mediciences.length; i++) {\r\n            if(mediciences[i].id==id){\r\n                return(mediciences[i]);\r\n            }\r\n        }\r\n        return Medicien({\r\n            name:\"null\",\r\n            id:0,\r\n            serial:\"null\",\r\n            productiondate:0,\r\n            expiredate:0,\r\n            manfiactorid:0,\r\n            parmacyid:0\r\n        });\r\n    }\r\n    \r\n    function getmedicien_serial(string memory seial) public view returns(Medicien memory _medicien){\r\n        for (uint i = 0; i < mediciences.length; i++) {\r\n            if(uint(keccak256(abi.encodePacked((mediciences[i].serial))))==uint(keccak256(abi.encodePacked((seial))))){\r\n                return(mediciences[i]);\r\n            }\r\n        }\r\n        return Medicien({\r\n            name:\"null\",\r\n            id:0,\r\n            serial:\"null\",\r\n            productiondate:0,\r\n            expiredate:0,\r\n            manfiactorid:0,\r\n            parmacyid:0\r\n        });\r\n    }\r\n    \r\n    function addmedicen(string memory _name,string memory _serial,uint profuction,uint expire,uint manfiactorid,uint pharma)public{\r\n        Medicien memory med=getmedicien_serial(_serial);\r\n        if(med.id==0){\r\n            mediciences.push(Medicien({\r\n                id:_medid,\r\n                name:_name,\r\n                serial:_serial,\r\n                productiondate:profuction,\r\n                expiredate:expire,\r\n                manfiactorid:manfiactorid,\r\n                parmacyid:pharma\r\n            }));\r\n            _medid++;\r\n        }\r\n    }\r\n    \r\n    \r\n    \r\n    //////////////////////////////////////////////////////User///////////////////////////////////////////\r\n      function login(string memory  username,string memory  password) public view returns(User memory user){\r\n        bool find=false;\r\n        for (uint i = 0; i < users.length; i++) {\r\n            if(uint(keccak256(abi.encodePacked((users[i].username))))==uint(keccak256(abi.encodePacked((username)))) && uint(keccak256(abi.encodePacked((users[i].password)))) ==uint(keccak256(abi.encodePacked((password)))) && users[i].deleted==false){\r\n                find=true;\r\n                return users[i];\r\n            }\r\n        }\r\n        \r\n        if(find==false)\r\n            return User({\r\n                userid:0,\r\n                deleted:true,\r\n                name:\"null\",\r\n                username:\"null\",\r\n                password:\"null\"\r\n            });\r\n    }\r\n    \r\n    function regiter(string memory username,string memory password,string memory name)public{\r\n        User memory user=login(username,password);\r\n        if(user.deleted==true){\r\n            users.push(User({\r\n                userid:_userid,\r\n                deleted:false,\r\n                name:name,\r\n                username:username,\r\n                password:password\r\n            }));\r\n            _userid++;\r\n        }\r\n    }\r\n}",
  "sourcePath": "D:/Projects/GP/contracts/Pharmacy.sol",
  "compiler": {
    "name": "solc",
    "version": "0.5.16+commit.9c3226ce.Emscripten.clang"
  },
  "schemaVersion": "3.3.4",
  "updatedAt": "2021-02-23T14:14:45.379Z",
  "networkType": "ethereum",
  "devdoc": {
    "details": "Implements voting process along with vote delegation",
    "methods": {},
    "title": "Ballot"
  },
  "userdoc": {
    "methods": {
      "getOrderbypharma(uint256)": {
        "notice": "//////////////////////////////////////////////////////Order////////////////////////////////////"
      },
      "getmedicienbyPharma(uint256)": {
        "notice": "///////////////////////////////////////////////////////medicien///////////////////////////////////////////"
      },
      "login(string,string)": {
        "notice": "///////////////////////////////////////////////////User///////////////////////////////////////////"
      }
    }
  }
}