{
  "contractName": "Pharmacy",
  "abi": [
    {
      "inputs": [],
      "payable": false,
      "stateMutability": "nonpayable",
      "type": "constructor"
    },
    {
      "constant": true,
      "inputs": [
        {
          "internalType": "uint256",
          "name": "",
          "type": "uint256"
        }
      ],
      "name": "_Seachmedi",
      "outputs": [
        {
          "internalType": "uint256",
          "name": "id",
          "type": "uint256"
        },
        {
          "internalType": "string",
          "name": "name",
          "type": "string"
        },
        {
          "internalType": "string",
          "name": "serial",
          "type": "string"
        },
        {
          "internalType": "uint256",
          "name": "productiondate",
          "type": "uint256"
        },
        {
          "internalType": "uint256",
          "name": "expiredate",
          "type": "uint256"
        },
        {
          "internalType": "uint256",
          "name": "manfiactorid",
          "type": "uint256"
        },
        {
          "internalType": "uint256",
          "name": "parmacyid",
          "type": "uint256"
        }
      ],
      "payable": false,
      "stateMutability": "view",
      "type": "function"
    },
    {
      "constant": true,
      "inputs": [
        {
          "internalType": "uint256",
          "name": "",
          "type": "uint256"
        }
      ],
      "name": "_SearchOrders",
      "outputs": [
        {
          "internalType": "uint256",
          "name": "orderid",
          "type": "uint256"
        },
        {
          "internalType": "uint256",
          "name": "medicienid",
          "type": "uint256"
        },
        {
          "internalType": "bool",
          "name": "confirmed",
          "type": "bool"
        },
        {
          "internalType": "uint256",
          "name": "manfiactorid",
          "type": "uint256"
        },
        {
          "internalType": "uint256",
          "name": "parmacyid",
          "type": "uint256"
        }
      ],
      "payable": false,
      "stateMutability": "view",
      "type": "function"
    },
    {
      "constant": true,
      "inputs": [
        {
          "internalType": "uint256",
          "name": "",
          "type": "uint256"
        }
      ],
      "name": "mediciences",
      "outputs": [
        {
          "internalType": "uint256",
          "name": "id",
          "type": "uint256"
        },
        {
          "internalType": "string",
          "name": "name",
          "type": "string"
        },
        {
          "internalType": "string",
          "name": "serial",
          "type": "string"
        },
        {
          "internalType": "uint256",
          "name": "productiondate",
          "type": "uint256"
        },
        {
          "internalType": "uint256",
          "name": "expiredate",
          "type": "uint256"
        },
        {
          "internalType": "uint256",
          "name": "manfiactorid",
          "type": "uint256"
        },
        {
          "internalType": "uint256",
          "name": "parmacyid",
          "type": "uint256"
        }
      ],
      "payable": false,
      "stateMutability": "view",
      "type": "function"
    },
    {
      "constant": true,
      "inputs": [
        {
          "internalType": "uint256",
          "name": "",
          "type": "uint256"
        }
      ],
      "name": "orders",
      "outputs": [
        {
          "internalType": "uint256",
          "name": "orderid",
          "type": "uint256"
        },
        {
          "internalType": "uint256",
          "name": "medicienid",
          "type": "uint256"
        },
        {
          "internalType": "bool",
          "name": "confirmed",
          "type": "bool"
        },
        {
          "internalType": "uint256",
          "name": "manfiactorid",
          "type": "uint256"
        },
        {
          "internalType": "uint256",
          "name": "parmacyid",
          "type": "uint256"
        }
      ],
      "payable": false,
      "stateMutability": "view",
      "type": "function"
    },
    {
      "constant": true,
      "inputs": [
        {
          "internalType": "uint256",
          "name": "",
          "type": "uint256"
        }
      ],
      "name": "users",
      "outputs": [
        {
          "internalType": "uint256",
          "name": "userid",
          "type": "uint256"
        },
        {
          "internalType": "bool",
          "name": "deleted",
          "type": "bool"
        },
        {
          "internalType": "string",
          "name": "username",
          "type": "string"
        },
        {
          "internalType": "string",
          "name": "password",
          "type": "string"
        },
        {
          "internalType": "string",
          "name": "name",
          "type": "string"
        }
      ],
      "payable": false,
      "stateMutability": "view",
      "type": "function"
    },
    {
      "constant": false,
      "inputs": [
        {
          "internalType": "uint256",
          "name": "_pharmaid",
          "type": "uint256"
        }
      ],
      "name": "getOrderbypharma",
      "outputs": [],
      "payable": false,
      "stateMutability": "nonpayable",
      "type": "function"
    },
    {
      "constant": false,
      "inputs": [
        {
          "internalType": "uint256",
          "name": "_manficid",
          "type": "uint256"
        }
      ],
      "name": "getOrderbymanfi",
      "outputs": [],
      "payable": false,
      "stateMutability": "nonpayable",
      "type": "function"
    },
    {
      "constant": false,
      "inputs": [
        {
          "internalType": "uint256",
          "name": "medicienid",
          "type": "uint256"
        },
        {
          "internalType": "uint256",
          "name": "manfiactorid",
          "type": "uint256"
        },
        {
          "internalType": "uint256",
          "name": "parmacyid",
          "type": "uint256"
        }
      ],
      "name": "addOrder",
      "outputs": [],
      "payable": false,
      "stateMutability": "nonpayable",
      "type": "function"
    },
    {
      "constant": false,
      "inputs": [
        {
          "internalType": "uint256",
          "name": "orderid",
          "type": "uint256"
        }
      ],
      "name": "confirmOrder",
      "outputs": [],
      "payable": false,
      "stateMutability": "nonpayable",
      "type": "function"
    },
    {
      "constant": true,
      "inputs": [],
      "name": "returnSearchedOrderData",
      "outputs": [
        {
          "components": [
            {
              "internalType": "uint256",
              "name": "orderid",
              "type": "uint256"
            },
            {
              "internalType": "uint256",
              "name": "medicienid",
              "type": "uint256"
            },
            {
              "internalType": "bool",
              "name": "confirmed",
              "type": "bool"
            },
            {
              "internalType": "uint256",
              "name": "manfiactorid",
              "type": "uint256"
            },
            {
              "internalType": "uint256",
              "name": "parmacyid",
              "type": "uint256"
            }
          ],
          "internalType": "struct Pharmacy.Order[]",
          "name": "_medicien",
          "type": "tuple[]"
        }
      ],
      "payable": false,
      "stateMutability": "view",
      "type": "function"
    },
    {
      "constant": false,
      "inputs": [
        {
          "internalType": "uint256",
          "name": "_pharmaid",
          "type": "uint256"
        }
      ],
      "name": "getmedicienbyPharma",
      "outputs": [],
      "payable": false,
      "stateMutability": "nonpayable",
      "type": "function"
    },
    {
      "constant": true,
      "inputs": [],
      "name": "returnSearchedMedicienData",
      "outputs": [
        {
          "components": [
            {
              "internalType": "uint256",
              "name": "id",
              "type": "uint256"
            },
            {
              "internalType": "string",
              "name": "name",
              "type": "string"
            },
            {
              "internalType": "string",
              "name": "serial",
              "type": "string"
            },
            {
              "internalType": "uint256",
              "name": "productiondate",
              "type": "uint256"
            },
            {
              "internalType": "uint256",
              "name": "expiredate",
              "type": "uint256"
            },
            {
              "internalType": "uint256",
              "name": "manfiactorid",
              "type": "uint256"
            },
            {
              "internalType": "uint256",
              "name": "parmacyid",
              "type": "uint256"
            }
          ],
          "internalType": "struct Pharmacy.Medicien[]",
          "name": "_medicien",
          "type": "tuple[]"
        }
      ],
      "payable": false,
      "stateMutability": "view",
      "type": "function"
    },
    {
      "constant": true,
      "inputs": [
        {
          "internalType": "uint256",
          "name": "id",
          "type": "uint256"
        }
      ],
      "name": "getmedicien",
      "outputs": [
        {
          "components": [
            {
              "internalType": "uint256",
              "name": "id",
              "type": "uint256"
            },
            {
              "internalType": "string",
              "name": "name",
              "type": "string"
            },
            {
              "internalType": "string",
              "name": "serial",
              "type": "string"
            },
            {
              "internalType": "uint256",
              "name": "productiondate",
              "type": "uint256"
            },
            {
              "internalType": "uint256",
              "name": "expiredate",
              "type": "uint256"
            },
            {
              "internalType": "uint256",
              "name": "manfiactorid",
              "type": "uint256"
            },
            {
              "internalType": "uint256",
              "name": "parmacyid",
              "type": "uint256"
            }
          ],
          "internalType": "struct Pharmacy.Medicien",
          "name": "_medicien",
          "type": "tuple"
        }
      ],
      "payable": false,
      "stateMutability": "view",
      "type": "function"
    },
    {
      "constant": true,
      "inputs": [
        {
          "internalType": "string",
          "name": "seial",
          "type": "string"
        }
      ],
      "name": "getmedicien_serial",
      "outputs": [
        {
          "components": [
            {
              "internalType": "uint256",
              "name": "id",
              "type": "uint256"
            },
            {
              "internalType": "string",
              "name": "name",
              "type": "string"
            },
            {
              "internalType": "string",
              "name": "serial",
              "type": "string"
            },
            {
              "internalType": "uint256",
              "name": "productiondate",
              "type": "uint256"
            },
            {
              "internalType": "uint256",
              "name": "expiredate",
              "type": "uint256"
            },
            {
              "internalType": "uint256",
              "name": "manfiactorid",
              "type": "uint256"
            },
            {
              "internalType": "uint256",
              "name": "parmacyid",
              "type": "uint256"
            }
          ],
          "internalType": "struct Pharmacy.Medicien",
          "name": "_medicien",
          "type": "tuple"
        }
      ],
      "payable": false,
      "stateMutability": "view",
      "type": "function"
    },
    {
      "constant": false,
      "inputs": [
        {
          "internalType": "string",
          "name": "_name",
          "type": "string"
        },
        {
          "internalType": "string",
          "name": "_serial",
          "type": "string"
        },
        {
          "internalType": "uint256",
          "name": "profuction",
          "type": "uint256"
        },
        {
          "internalType": "uint256",
          "name": "expire",
          "type": "uint256"
        },
        {
          "internalType": "uint256",
          "name": "manfiactorid",
          "type": "uint256"
        },
        {
          "internalType": "uint256",
          "name": "pharma",
          "type": "uint256"
        }
      ],
      "name": "addmedicen",
      "outputs": [],
      "payable": false,
      "stateMutability": "nonpayable",
      "type": "function"
    },
    {
      "constant": true,
      "inputs": [
        {
          "internalType": "string",
          "name": "username",
          "type": "string"
        },
        {
          "internalType": "string",
          "name": "password",
          "type": "string"
        }
      ],
      "name": "login",
      "outputs": [
        {
          "components": [
            {
              "internalType": "uint256",
              "name": "userid",
              "type": "uint256"
            },
            {
              "internalType": "bool",
              "name": "deleted",
              "type": "bool"
            },
            {
              "internalType": "string",
              "name": "username",
              "type": "string"
            },
            {
              "internalType": "string",
              "name": "password",
              "type": "string"
            },
            {
              "internalType": "string",
              "name": "name",
              "type": "string"
            }
          ],
          "internalType": "struct Pharmacy.User",
          "name": "user",
          "type": "tuple"
        }
      ],
      "payable": false,
      "stateMutability": "view",
      "type": "function"
    },
    {
      "constant": false,
      "inputs": [
        {
          "internalType": "string",
          "name": "username",
          "type": "string"
        },
        {
          "internalType": "string",
          "name": "password",
          "type": "string"
        },
        {
          "internalType": "string",
          "name": "name",
          "type": "string"
        }
      ],
      "name": "regiter",
      "outputs": [],
      "payable": false,
      "stateMutability": "nonpayable",
      "type": "function"
    }
  ],
  "bytecode": "0x608060405234801561001057600080fd5b50600160068190555060016007819055506001600581905550612a90806100386000396000f3fe608060405234801561001057600080fd5b506004361061010b5760003560e01c806380af0890116100a2578063a8a8492f11610071578063a8a8492f146102e6578063b13d4a8014610302578063bd7d58fa14610338578063f7d34e211461036e578063ff35cd541461038a5761010b565b806380af08901461025e5780638ac7d79c1461027a57806398a6bbb714610296578063a85c38ef146102b25761010b565b806358467dbc116100de57806358467dbc146101ac5780635b581a37146101dc5780636c640f7d146101fa578063750cf32b1461022e5761010b565b806302553f7e1461011057806333dac29714610140578063365b98b21461015c5780634a8038b614610190575b600080fd5b61012a600480360361012591908101906121a6565b6103a8565b604051610137919061272e565b60405180910390f35b61015a600480360361015591908101906121cf565b610645565b005b610176600480360361017191908101906121a6565b610700565b604051610187959493929190612772565b60405180910390f35b6101aa60048036036101a591908101906121a6565b610918565b005b6101c660048036036101c19190810190611fea565b610a3e565b6040516101d39190612750565b60405180910390f35b6101e4610ebd565b6040516101f1919061270c565b60405180910390f35b610214600480360361020f91908101906121a6565b610f5f565b604051610225959493929190612857565b60405180910390f35b61024860048036036102439190810190611fa9565b610faf565b604051610255919061272e565b60405180910390f35b610278600480360361027391908101906121a6565b61129d565b005b610294600480360361028f91908101906121a6565b611396565b005b6102b060048036036102ab91908101906120ed565b611418565b005b6102cc60048036036102c791908101906121a6565b611525565b6040516102dd959493929190612857565b60405180910390f35b61030060048036036102fb9190810190612056565b611575565b005b61031c600480360361031791908101906121a6565b611690565b60405161032f97969594939291906127da565b60405180910390f35b610352600480360361034d91908101906121a6565b61180f565b60405161036597969594939291906127da565b60405180910390f35b610388600480360361038391908101906121a6565b61198e565b005b610392611a87565b60405161039f91906126ea565b60405180910390f35b6103b0611c5c565b60008090505b60018054905081101561059a5782600182815481106103d157fe5b906000526020600020906007020160000154141561058d57600181815481106103f657fe5b90600052602060002090600702016040518060e001604052908160008201548152602001600182018054600181600116156101000203166002900480601f0160208091040260200160405190810160405280929190818152602001828054600181600116156101000203166002900480156104b25780601f10610487576101008083540402835291602001916104b2565b820191906000526020600020905b81548152906001019060200180831161049557829003601f168201915b50505050508152602001600282018054600181600116156101000203166002900480601f0160208091040260200160405190810160405280929190818152602001828054600181600116156101000203166002900480156105545780601f1061052957610100808354040283529160200191610554565b820191906000526020600020905b81548152906001019060200180831161053757829003601f168201915b50505050508152602001600382015481526020016004820154815260200160058201548152602001600682015481525050915050610640565b80806001019150506103b6565b506040518060e00160405280600081526020016040518060400160405280600481526020017f6e756c6c0000000000000000000000000000000000000000000000000000000081525081526020016040518060400160405280600481526020017f6e756c6c000000000000000000000000000000000000000000000000000000008152508152602001600081526020016000815260200160008152602001600081525090505b919050565b60036040518060a0016040528060075481526020018581526020016000151581526020018481526020018381525090806001815401808255809150509060018203906000526020600020906005020160009091929091909150600082015181600001556020820151816001015560408201518160020160006101000a81548160ff0219169083151502179055506060820151816003015560808201518160040155505050600760008154809291906001019190505550505050565b6000818154811061070d57fe5b90600052602060002090600502016000915090508060000154908060010160009054906101000a900460ff1690806002018054600181600116156101000203166002900480601f0160208091040260200160405190810160405280929190818152602001828054600181600116156101000203166002900480156107d25780601f106107a7576101008083540402835291602001916107d2565b820191906000526020600020905b8154815290600101906020018083116107b557829003601f168201915b505050505090806003018054600181600116156101000203166002900480601f0160208091040260200160405190810160405280929190818152602001828054600181600116156101000203166002900480156108705780601f1061084557610100808354040283529160200191610870565b820191906000526020600020905b81548152906001019060200180831161085357829003601f168201915b505050505090806004018054600181600116156101000203166002900480601f01602080910402602001604051908101604052809291908181526020018280546001816001161561010002031660029004801561090e5780601f106108e35761010080835404028352916020019161090e565b820191906000526020600020905b8154815290600101906020018083116108f157829003601f168201915b5050505050905085565b600260006109269190611c99565b60008090505b600180549050811015610a3a57816001828154811061094757fe5b9060005260206000209060070201600601541415610a2d5760026001828154811061096e57fe5b90600052602060002090600702019080600181540180825580915050906001820390600052602060002090600702016000909192909190915060008201548160000155600182018160010190805460018160011615610100020316600290046109d8929190611cbd565b5060028201816002019080546001816001161561010002031660029004610a00929190611cbd565b50600382015481600301556004820154816004015560058201548160050155600682015481600601555050505b808060010191505061092c565b5050565b610a46611d44565b600080905060008090505b600080549050811015610dd55784604051602001610a6f91906126bc565b6040516020818303038152906040528051906020012060001c60008281548110610a9557fe5b9060005260206000209060050201600201604051602001610ab691906126d3565b6040516020818303038152906040528051906020012060001c148015610b4a575083604051602001610ae891906126bc565b6040516020818303038152906040528051906020012060001c60008281548110610b0e57fe5b9060005260206000209060050201600301604051602001610b2f91906126d3565b6040516020818303038152906040528051906020012060001c145b8015610b8557506000151560008281548110610b6257fe5b906000526020600020906005020160010160009054906101000a900460ff161515145b15610dc8576001915060008181548110610b9b57fe5b90600052602060002090600502016040518060a0016040529081600082015481526020016001820160009054906101000a900460ff16151515158152602001600282018054600181600116156101000203166002900480601f016020809104026020016040519081016040528092919081815260200182805460018160011615610100020316600290048015610c725780601f10610c4757610100808354040283529160200191610c72565b820191906000526020600020905b815481529060010190602001808311610c5557829003601f168201915b50505050508152602001600382018054600181600116156101000203166002900480601f016020809104026020016040519081016040528092919081815260200182805460018160011615610100020316600290048015610d145780601f10610ce957610100808354040283529160200191610d14565b820191906000526020600020905b815481529060010190602001808311610cf757829003601f168201915b50505050508152602001600482018054600181600116156101000203166002900480601f016020809104026020016040519081016040528092919081815260200182805460018160011615610100020316600290048015610db65780601f10610d8b57610100808354040283529160200191610db6565b820191906000526020600020905b815481529060010190602001808311610d9957829003601f168201915b50505050508152505092505050610eb7565b8080600101915050610a51565b50600015158115151415610eb5576040518060a00160405280600081526020016001151581526020016040518060400160405280600481526020017f6e756c6c0000000000000000000000000000000000000000000000000000000081525081526020016040518060400160405280600481526020017f6e756c6c0000000000000000000000000000000000000000000000000000000081525081526020016040518060400160405280600481526020017f6e756c6c00000000000000000000000000000000000000000000000000000000815250815250915050610eb7565b505b92915050565b60606004805480602002602001604051908101604052809291908181526020016000905b82821015610f5657838290600052602060002090600502016040518060a001604052908160008201548152602001600182015481526020016002820160009054906101000a900460ff161515151581526020016003820154815260200160048201548152505081526020019060010190610ee1565b50505050905090565b60048181548110610f6c57fe5b90600052602060002090600502016000915090508060000154908060010154908060020160009054906101000a900460ff16908060030154908060040154905085565b610fb7611c5c565b60008090505b6001805490508110156111f25782604051602001610fdb91906126bc565b6040516020818303038152906040528051906020012060001c6001828154811061100157fe5b906000526020600020906007020160020160405160200161102291906126d3565b6040516020818303038152906040528051906020012060001c14156111e5576001818154811061104e57fe5b90600052602060002090600702016040518060e001604052908160008201548152602001600182018054600181600116156101000203166002900480601f01602080910402602001604051908101604052809291908181526020018280546001816001161561010002031660029004801561110a5780601f106110df5761010080835404028352916020019161110a565b820191906000526020600020905b8154815290600101906020018083116110ed57829003601f168201915b50505050508152602001600282018054600181600116156101000203166002900480601f0160208091040260200160405190810160405280929190818152602001828054600181600116156101000203166002900480156111ac5780601f10611181576101008083540402835291602001916111ac565b820191906000526020600020905b81548152906001019060200180831161118f57829003601f168201915b50505050508152602001600382015481526020016004820154815260200160058201548152602001600682015481525050915050611298565b8080600101915050610fbd565b506040518060e00160405280600081526020016040518060400160405280600481526020017f6e756c6c0000000000000000000000000000000000000000000000000000000081525081526020016040518060400160405280600481526020017f6e756c6c000000000000000000000000000000000000000000000000000000008152508152602001600081526020016000815260200160008152602001600081525090505b919050565b600460006112ab9190611d75565b60008090505b6003805490508110156113925781600382815481106112cc57fe5b9060005260206000209060050201600401541415611385576004600382815481106112f357fe5b90600052602060002090600502019080600181540180825580915050906001820390600052602060002090600502016000909192909190915060008201548160000155600182015481600101556002820160009054906101000a900460ff168160020160006101000a81548160ff02191690831515021790555060038201548160030155600482015481600401555050505b80806001019150506112b1565b5050565b60008090505b6003805490508110156114145781600382815481106113b757fe5b9060005260206000209060050201600001541415611407576001600382815481106113de57fe5b906000526020600020906005020160020160006101000a81548160ff0219169083151502179055505b808060010191505061139c565b5050565b611420611c5c565b61142986610faf565b905060008160000151141561151c5760016040518060e00160405280600654815260200189815260200188815260200187815260200186815260200185815260200184815250908060018154018082558091505090600182039060005260206000209060070201600090919290919091506000820151816000015560208201518160010190805190602001906114c0929190611d99565b5060408201518160020190805190602001906114dd929190611d99565b50606082015181600301556080820151816004015560a0820151816005015560c082015181600601555050506006600081548092919060010191905055505b50505050505050565b6003818154811061153257fe5b90600052602060002090600502016000915090508060000154908060010154908060020160009054906101000a900460ff16908060030154908060040154905085565b61157d611d44565b6115878484610a3e565b90506001151581602001511515141561168a5760006040518060a00160405280600554815260200160001515815260200186815260200185815260200184815250908060018154018082558091505090600182039060005260206000209060050201600090919290919091506000820151816000015560208201518160010160006101000a81548160ff0219169083151502179055506040820151816002019080519060200190611639929190611d99565b506060820151816003019080519060200190611656929190611d99565b506080820151816004019080519060200190611673929190611d99565b505050506005600081548092919060010191905055505b50505050565b6002818154811061169d57fe5b9060005260206000209060070201600091509050806000015490806001018054600181600116156101000203166002900480601f01602080910402602001604051908101604052809291908181526020018280546001816001161561010002031660029004801561174f5780601f106117245761010080835404028352916020019161174f565b820191906000526020600020905b81548152906001019060200180831161173257829003601f168201915b505050505090806002018054600181600116156101000203166002900480601f0160208091040260200160405190810160405280929190818152602001828054600181600116156101000203166002900480156117ed5780601f106117c2576101008083540402835291602001916117ed565b820191906000526020600020905b8154815290600101906020018083116117d057829003601f168201915b5050505050908060030154908060040154908060050154908060060154905087565b6001818154811061181c57fe5b9060005260206000209060070201600091509050806000015490806001018054600181600116156101000203166002900480601f0160208091040260200160405190810160405280929190818152602001828054600181600116156101000203166002900480156118ce5780601f106118a3576101008083540402835291602001916118ce565b820191906000526020600020905b8154815290600101906020018083116118b157829003601f168201915b505050505090806002018054600181600116156101000203166002900480601f01602080910402602001604051908101604052809291908181526020018280546001816001161561010002031660029004801561196c5780601f106119415761010080835404028352916020019161196c565b820191906000526020600020905b81548152906001019060200180831161194f57829003601f168201915b5050505050908060030154908060040154908060050154908060060154905087565b6004600061199c9190611d75565b60008090505b600380549050811015611a835781600182815481106119bd57fe5b9060005260206000209060070201600501541415611a76576004600382815481106119e457fe5b90600052602060002090600502019080600181540180825580915050906001820390600052602060002090600502016000909192909190915060008201548160000155600182015481600101556002820160009054906101000a900460ff168160020160006101000a81548160ff02191690831515021790555060038201548160030155600482015481600401555050505b80806001019150506119a2565b5050565b60606002805480602002602001604051908101604052809291908181526020016000905b82821015611c5357838290600052602060002090600702016040518060e001604052908160008201548152602001600182018054600181600116156101000203166002900480601f016020809104026020016040519081016040528092919081815260200182805460018160011615610100020316600290048015611b715780601f10611b4657610100808354040283529160200191611b71565b820191906000526020600020905b815481529060010190602001808311611b5457829003601f168201915b50505050508152602001600282018054600181600116156101000203166002900480601f016020809104026020016040519081016040528092919081815260200182805460018160011615610100020316600290048015611c135780601f10611be857610100808354040283529160200191611c13565b820191906000526020600020905b815481529060010190602001808311611bf657829003601f168201915b5050505050815260200160038201548152602001600482015481526020016005820154815260200160068201548152505081526020019060010190611aab565b50505050905090565b6040518060e00160405280600081526020016060815260200160608152602001600081526020016000815260200160008152602001600081525090565b5080546000825560070290600052602060002090810190611cba9190611e19565b50565b828054600181600116156101000203166002900490600052602060002090601f016020900481019282601f10611cf65780548555611d33565b82800160010185558215611d3357600052602060002091601f016020900482015b82811115611d32578254825591600101919060010190611d17565b5b509050611d409190611e80565b5090565b6040518060a00160405280600081526020016000151581526020016060815260200160608152602001606081525090565b5080546000825560050290600052602060002090810190611d969190611ea5565b50565b828054600181600116156101000203166002900490600052602060002090601f016020900481019282601f10611dda57805160ff1916838001178555611e08565b82800160010185558215611e08579182015b82811115611e07578251825591602001919060010190611dec565b5b509050611e159190611e80565b5090565b611e7d91905b80821115611e7957600080820160009055600182016000611e409190611ef8565b600282016000611e509190611ef8565b600382016000905560048201600090556005820160009055600682016000905550600701611e1f565b5090565b90565b611ea291905b80821115611e9e576000816000905550600101611e86565b5090565b90565b611ef591905b80821115611ef15760008082016000905560018201600090556002820160006101000a81549060ff02191690556003820160009055600482016000905550600501611eab565b5090565b90565b50805460018160011615610100020316600290046000825580601f10611f1e5750611f3d565b601f016020900490600052602060002090810190611f3c9190611e80565b5b50565b600082601f830112611f5157600080fd5b8135611f64611f5f826128d7565b6128aa565b91508082526020830160208301858383011115611f8057600080fd5b611f8b8382846129e3565b50505092915050565b600081359050611fa381612a36565b92915050565b600060208284031215611fbb57600080fd5b600082013567ffffffffffffffff811115611fd557600080fd5b611fe184828501611f40565b91505092915050565b60008060408385031215611ffd57600080fd5b600083013567ffffffffffffffff81111561201757600080fd5b61202385828601611f40565b925050602083013567ffffffffffffffff81111561204057600080fd5b61204c85828601611f40565b9150509250929050565b60008060006060848603121561206b57600080fd5b600084013567ffffffffffffffff81111561208557600080fd5b61209186828701611f40565b935050602084013567ffffffffffffffff8111156120ae57600080fd5b6120ba86828701611f40565b925050604084013567ffffffffffffffff8111156120d757600080fd5b6120e386828701611f40565b9150509250925092565b60008060008060008060c0878903121561210657600080fd5b600087013567ffffffffffffffff81111561212057600080fd5b61212c89828a01611f40565b965050602087013567ffffffffffffffff81111561214957600080fd5b61215589828a01611f40565b955050604061216689828a01611f94565b945050606061217789828a01611f94565b935050608061218889828a01611f94565b92505060a061219989828a01611f94565b9150509295509295509295565b6000602082840312156121b857600080fd5b60006121c684828501611f94565b91505092915050565b6000806000606084860312156121e457600080fd5b60006121f286828701611f94565b935050602061220386828701611f94565b925050604061221486828701611f94565b9150509250925092565b600061222a838361250f565b905092915050565b600061223e83836125b2565b60a08301905092915050565b600061225582612938565b61225f818561297e565b93508360208202850161227185612903565b8060005b858110156122ad578484038952815161228e858261221e565b945061229983612964565b925060208a01995050600181019050612275565b50829750879550505050505092915050565b60006122ca82612943565b6122d4818561298f565b93506122df83612913565b8060005b838110156123105781516122f78882612232565b975061230283612971565b9250506001810190506122e3565b5085935050505092915050565b612326816129cd565b82525050565b612335816129cd565b82525050565b600061234682612959565b61235081856129c2565b93506123608185602086016129f2565b80840191505092915050565b60006123778261294e565b61238181856129a0565b93506123918185602086016129f2565b61239a81612a25565b840191505092915050565b60006123b08261294e565b6123ba81856129b1565b93506123ca8185602086016129f2565b6123d381612a25565b840191505092915050565b6000815460018116600081146123fb576001811461242057612464565b607f600283041661240c81876129c2565b955060ff1983168652808601935050612464565b6002820461242e81876129c2565b955061243985612923565b60005b8281101561245b5781548189015260018201915060208101905061243c565b82880195505050505b505092915050565b600060e083016000830151612484600086018261269e565b506020830151848203602086015261249c828261236c565b915050604083015184820360408601526124b6828261236c565b91505060608301516124cb606086018261269e565b5060808301516124de608086018261269e565b5060a08301516124f160a086018261269e565b5060c083015161250460c086018261269e565b508091505092915050565b600060e083016000830151612527600086018261269e565b506020830151848203602086015261253f828261236c565b91505060408301518482036040860152612559828261236c565b915050606083015161256e606086018261269e565b506080830151612581608086018261269e565b5060a083015161259460a086018261269e565b5060c08301516125a760c086018261269e565b508091505092915050565b60a0820160008201516125c8600085018261269e565b5060208201516125db602085018261269e565b5060408201516125ee604085018261231d565b506060820151612601606085018261269e565b506080820151612614608085018261269e565b50505050565b600060a083016000830151612632600086018261269e565b506020830151612645602086018261231d565b506040830151848203604086015261265d828261236c565b91505060608301518482036060860152612677828261236c565b91505060808301518482036080860152612691828261236c565b9150508091505092915050565b6126a7816129d9565b82525050565b6126b6816129d9565b82525050565b60006126c8828461233b565b915081905092915050565b60006126df82846123de565b915081905092915050565b60006020820190508181036000830152612704818461224a565b905092915050565b6000602082019050818103600083015261272681846122bf565b905092915050565b60006020820190508181036000830152612748818461246c565b905092915050565b6000602082019050818103600083015261276a818461261a565b905092915050565b600060a08201905061278760008301886126ad565b612794602083018761232c565b81810360408301526127a681866123a5565b905081810360608301526127ba81856123a5565b905081810360808301526127ce81846123a5565b90509695505050505050565b600060e0820190506127ef600083018a6126ad565b818103602083015261280181896123a5565b9050818103604083015261281581886123a5565b905061282460608301876126ad565b61283160808301866126ad565b61283e60a08301856126ad565b61284b60c08301846126ad565b98975050505050505050565b600060a08201905061286c60008301886126ad565b61287960208301876126ad565b612886604083018661232c565b61289360608301856126ad565b6128a060808301846126ad565b9695505050505050565b6000604051905081810181811067ffffffffffffffff821117156128cd57600080fd5b8060405250919050565b600067ffffffffffffffff8211156128ee57600080fd5b601f19601f8301169050602081019050919050565b6000819050602082019050919050565b6000819050602082019050919050565b60008190508160005260206000209050919050565b600081519050919050565b600081519050919050565b600081519050919050565b600081519050919050565b6000602082019050919050565b6000602082019050919050565b600082825260208201905092915050565b600082825260208201905092915050565b600082825260208201905092915050565b600082825260208201905092915050565b600081905092915050565b60008115159050919050565b6000819050919050565b82818337600083830152505050565b60005b83811015612a105780820151818401526020810190506129f5565b83811115612a1f576000848401525b50505050565b6000601f19601f8301169050919050565b612a3f816129d9565b8114612a4a57600080fd5b5056fea365627a7a72315820e3fb4f1696697016a5c7ba736796f7c4954d502a5053e8eda880e1d4f9e5b0556c6578706572696d656e74616cf564736f6c63430005100040",
  "source": "// SPDX-License-Identifier: MIT\r\npragma solidity ^0.5.16;\r\n\r\npragma experimental ABIEncoderV2;\r\n\r\n/** \r\n * @title Ballot\r\n * @dev Implements voting process along with vote delegation\r\n */\r\ncontract Pharmacy {\r\n   \r\n    struct Medicien {\r\n        uint id; // weight is accumulated by delegation\r\n        string name; \r\n        string serial;  // index of the voted proposal\r\n        uint productiondate;\r\n        uint expiredate;\r\n        uint manfiactorid;\r\n        uint parmacyid;\r\n    }\r\n    \r\n    struct Order{\r\n        uint orderid;\r\n        uint medicienid;\r\n        bool confirmed;\r\n        uint manfiactorid;\r\n        uint parmacyid;\r\n    }\r\n    struct User {\r\n        uint userid; // weight is accumulated by delegation\r\n        bool deleted;  // if true, that person already voted\r\n        string username; \r\n        string password;  // index of the voted proposal\r\n        string name;\r\n    }\r\n    \r\n    User[] public users;\r\n    \r\n    \r\n    Medicien[] public mediciences;\r\n    Medicien[] public _Seachmedi;\r\n    Order[] public orders;\r\n    Order[] public _SearchOrders;\r\n    uint _userid;\r\n    uint _medid;\r\n    uint _orderid;\r\n    constructor()public{\r\n        _medid=1;\r\n        _orderid=1;\r\n        _userid=1;\r\n    }\r\n    /////////////////////////////////////////////////////////Order////////////////////////////////////\r\n    function getOrderbypharma(uint _pharmaid) public {\r\n        delete _SearchOrders;\r\n        for (uint i = 0; i < orders.length; i++) {\r\n            if(orders[i].parmacyid==_pharmaid){\r\n                _SearchOrders.push( orders[i]);\r\n            }\r\n        }\r\n    }\r\n    function getOrderbymanfi(uint _manficid) public {\r\n        delete _SearchOrders;\r\n        for (uint i = 0; i < orders.length; i++) {\r\n            if(mediciences[i].manfiactorid==_manficid){\r\n                _SearchOrders.push( orders[i]);\r\n            }\r\n        }\r\n    }\r\n    \r\n     function addOrder(uint medicienid,uint manfiactorid,uint parmacyid)public{\r\n            orders.push(Order({\r\n                orderid:_orderid,\r\n                medicienid:medicienid,\r\n                manfiactorid:manfiactorid,\r\n                parmacyid:parmacyid,\r\n                confirmed:false\r\n            }));\r\n            _orderid++;\r\n    }\r\n    \r\n    function confirmOrder(uint orderid)public{\r\n        for (uint i = 0; i < orders.length; i++) {\r\n            if(orders[i].orderid==orderid){\r\n                orders[i].confirmed=true;\r\n            }\r\n        }\r\n    }\r\n    \r\n     function returnSearchedOrderData() public view returns(Order[] memory _medicien){\r\n         return _SearchOrders;\r\n     }\r\n     \r\n     //////////////////////////////////////////////////////////medicien///////////////////////////////////////////\r\n     function getmedicienbyPharma(uint _pharmaid) public {\r\n        delete _Seachmedi;\r\n        for (uint i = 0; i < mediciences.length; i++) {\r\n            if(mediciences[i].parmacyid==_pharmaid){\r\n                _Seachmedi.push(mediciences[i]);\r\n            }\r\n        }\r\n    }\r\n     function returnSearchedMedicienData() public view returns(Medicien[] memory _medicien){\r\n         return _Seachmedi;\r\n     }\r\n    \r\n    function getmedicien(uint id) public view returns(Medicien memory _medicien){\r\n        for (uint i = 0; i < mediciences.length; i++) {\r\n            if(mediciences[i].id==id){\r\n                return(mediciences[i]);\r\n            }\r\n        }\r\n        return Medicien({\r\n            name:\"null\",\r\n            id:0,\r\n            serial:\"null\",\r\n            productiondate:0,\r\n            expiredate:0,\r\n            manfiactorid:0,\r\n            parmacyid:0\r\n        });\r\n    }\r\n    \r\n    function getmedicien_serial(string memory seial) public view returns(Medicien memory _medicien){\r\n        for (uint i = 0; i < mediciences.length; i++) {\r\n            if(uint(keccak256(abi.encodePacked((mediciences[i].serial))))==uint(keccak256(abi.encodePacked((seial))))){\r\n                return(mediciences[i]);\r\n            }\r\n        }\r\n        return Medicien({\r\n            name:\"null\",\r\n            id:0,\r\n            serial:\"null\",\r\n            productiondate:0,\r\n            expiredate:0,\r\n            manfiactorid:0,\r\n            parmacyid:0\r\n        });\r\n    }\r\n    \r\n    function addmedicen(string memory _name,string memory _serial,uint profuction,uint expire,uint manfiactorid,uint pharma)public{\r\n        Medicien memory med=getmedicien_serial(_serial);\r\n        if(med.id==0){\r\n            mediciences.push(Medicien({\r\n                id:_medid,\r\n                name:_name,\r\n                serial:_serial,\r\n                productiondate:profuction,\r\n                expiredate:expire,\r\n                manfiactorid:manfiactorid,\r\n                parmacyid:pharma\r\n            }));\r\n            _medid++;\r\n        }\r\n    }\r\n    \r\n    \r\n    \r\n    //////////////////////////////////////////////////////User///////////////////////////////////////////\r\n      function login(string memory  username,string memory  password) public view returns(User memory user){\r\n        bool find=false;\r\n        for (uint i = 0; i < users.length; i++) {\r\n            if(uint(keccak256(abi.encodePacked((users[i].username))))==uint(keccak256(abi.encodePacked((username)))) && uint(keccak256(abi.encodePacked((users[i].password)))) ==uint(keccak256(abi.encodePacked((password)))) && users[i].deleted==false){\r\n                find=true;\r\n                return users[i];\r\n            }\r\n        }\r\n        \r\n        if(find==false)\r\n            return User({\r\n                userid:0,\r\n                deleted:true,\r\n                name:\"null\",\r\n                username:\"null\",\r\n                password:\"null\"\r\n            });\r\n    }\r\n    \r\n    function regiter(string memory username,string memory password,string memory name)public{\r\n        User memory user=login(username,password);\r\n        if(user.deleted==true){\r\n            users.push(User({\r\n                userid:_userid,\r\n                deleted:false,\r\n                name:name,\r\n                username:username,\r\n                password:password\r\n            }));\r\n            _userid++;\r\n        }\r\n    }\r\n}",
  "sourcePath": "D:/Projects/GP/contracts/Pharmacy.sol",
  "compiler": {
    "name": "solc",
    "version": "0.5.16+commit.9c3226ce.Emscripten.clang"
  },
  "schemaVersion": "3.3.4",
  "updatedAt": "2021-02-20T11:48:54.454Z",
  "networkType": "ethereum",
  "devdoc": {
    "details": "Implements voting process along with vote delegation",
    "methods": {},
    "title": "Ballot"
  },
  "userdoc": {
    "methods": {
      "getOrderbypharma(uint256)": {
        "notice": "//////////////////////////////////////////////////////Order////////////////////////////////////"
      },
      "getmedicienbyPharma(uint256)": {
        "notice": "///////////////////////////////////////////////////////medicien///////////////////////////////////////////"
      },
      "login(string,string)": {
        "notice": "///////////////////////////////////////////////////User///////////////////////////////////////////"
      }
    }
  }
}