{
  "contractName": "User",
  "abi": [
    {
      "inputs": [],
      "payable": false,
      "stateMutability": "nonpayable",
      "type": "constructor"
    },
    {
      "constant": true,
      "inputs": [
        {
          "internalType": "uint256",
          "name": "",
          "type": "uint256"
        }
      ],
      "name": "users",
      "outputs": [
        {
          "internalType": "uint256",
          "name": "userid",
          "type": "uint256"
        },
        {
          "internalType": "bool",
          "name": "active",
          "type": "bool"
        },
        {
          "internalType": "string",
          "name": "name",
          "type": "string"
        },
        {
          "internalType": "string",
          "name": "username",
          "type": "string"
        },
        {
          "internalType": "string",
          "name": "password",
          "type": "string"
        },
        {
          "internalType": "uint256",
          "name": "addedOn",
          "type": "uint256"
        },
        {
          "internalType": "string",
          "name": "_type",
          "type": "string"
        }
      ],
      "payable": false,
      "stateMutability": "view",
      "type": "function"
    },
    {
      "constant": true,
      "inputs": [
        {
          "internalType": "string",
          "name": "username",
          "type": "string"
        },
        {
          "internalType": "string",
          "name": "password",
          "type": "string"
        },
        {
          "internalType": "string",
          "name": "typ",
          "type": "string"
        }
      ],
      "name": "login",
      "outputs": [
        {
          "components": [
            {
              "internalType": "uint256",
              "name": "userid",
              "type": "uint256"
            },
            {
              "internalType": "bool",
              "name": "active",
              "type": "bool"
            },
            {
              "internalType": "string",
              "name": "name",
              "type": "string"
            },
            {
              "internalType": "string",
              "name": "username",
              "type": "string"
            },
            {
              "internalType": "string",
              "name": "password",
              "type": "string"
            },
            {
              "internalType": "uint256",
              "name": "addedOn",
              "type": "uint256"
            },
            {
              "internalType": "string",
              "name": "_type",
              "type": "string"
            }
          ],
          "internalType": "struct User.User_Obj",
          "name": "user",
          "type": "tuple"
        }
      ],
      "payable": false,
      "stateMutability": "view",
      "type": "function"
    },
    {
      "constant": false,
      "inputs": [
        {
          "internalType": "string",
          "name": "username",
          "type": "string"
        },
        {
          "internalType": "string",
          "name": "password",
          "type": "string"
        },
        {
          "internalType": "string",
          "name": "name",
          "type": "string"
        },
        {
          "internalType": "string",
          "name": "typ",
          "type": "string"
        },
        {
          "internalType": "uint256",
          "name": "add",
          "type": "uint256"
        }
      ],
      "name": "regiter",
      "outputs": [],
      "payable": false,
      "stateMutability": "nonpayable",
      "type": "function"
    }
  ],
  "bytecode": "0x60806040523480156200001157600080fd5b50600080805490501415620002145760006040518060e00160405280600081526020016001151581526020016040518060400160405280600481526020017f6e756c6c0000000000000000000000000000000000000000000000000000000081525081526020016040518060400160405280600581526020017f61646d696e00000000000000000000000000000000000000000000000000000081525081526020016040518060400160405280600581526020017f61646d696e0000000000000000000000000000000000000000000000000000008152508152602001600081526020016040518060400160405280600181526020017f6100000000000000000000000000000000000000000000000000000000000000815250815250908060018154018082558091505090600182039060005260206000209060070201600090919290919091506000820151816000015560208201518160010160006101000a81548160ff0219169083151502179055506040820151816002019080519060200190620001a19291906200021a565b506060820151816003019080519060200190620001c09291906200021a565b506080820151816004019080519060200190620001df9291906200021a565b5060a0820151816005015560c0820151816006019080519060200190620002089291906200021a565b50505050600180819055505b620002c9565b828054600181600116156101000203166002900490600052602060002090601f016020900481019282601f106200025d57805160ff19168380011785556200028e565b828001600101855582156200028e579182015b828111156200028d57825182559160200191906001019062000270565b5b5090506200029d9190620002a1565b5090565b620002c691905b80821115620002c2576000816000905550600101620002a8565b5090565b90565b6111e880620002d96000396000f3fe608060405234801561001057600080fd5b50600436106100415760003560e01c8063365b98b214610046578063ce6317661461007c578063ec1153e0146100ac575b600080fd5b610060600480360361005b9190810190610d52565b6100c8565b6040516100739796959493929190610fe9565b60405180910390f35b61009660048036036100919190810190610be4565b610384565b6040516100a39190610fc7565b60405180910390f35b6100c660048036036100c19190810190610c7b565b610946565b005b600081815481106100d557fe5b90600052602060002090600702016000915090508060000154908060010160009054906101000a900460ff1690806002018054600181600116156101000203166002900480601f01602080910402602001604051908101604052809291908181526020018280546001816001161561010002031660029004801561019a5780601f1061016f5761010080835404028352916020019161019a565b820191906000526020600020905b81548152906001019060200180831161017d57829003601f168201915b505050505090806003018054600181600116156101000203166002900480601f0160208091040260200160405190810160405280929190818152602001828054600181600116156101000203166002900480156102385780601f1061020d57610100808354040283529160200191610238565b820191906000526020600020905b81548152906001019060200180831161021b57829003601f168201915b505050505090806004018054600181600116156101000203166002900480601f0160208091040260200160405190810160405280929190818152602001828054600181600116156101000203166002900480156102d65780601f106102ab576101008083540402835291602001916102d6565b820191906000526020600020905b8154815290600101906020018083116102b957829003601f168201915b505050505090806005015490806006018054600181600116156101000203166002900480601f01602080910402602001604051908101604052809291908181526020018280546001816001161561010002031660029004801561037a5780601f1061034f5761010080835404028352916020019161037a565b820191906000526020600020905b81548152906001019060200180831161035d57829003601f168201915b5050505050905087565b61038c610a97565b600080905060008090505b60008054905081101561084157856040516020016103b59190610f99565b6040516020818303038152906040528051906020012060001c600082815481106103db57fe5b90600052602060002090600702016003016040516020016103fc9190610fb0565b6040516020818303038152906040528051906020012060001c14801561049057508460405160200161042e9190610f99565b6040516020818303038152906040528051906020012060001c6000828154811061045457fe5b90600052602060002090600702016004016040516020016104759190610fb0565b6040516020818303038152906040528051906020012060001c145b801561050a5750836040516020016104a89190610f99565b6040516020818303038152906040528051906020012060001c600082815481106104ce57fe5b90600052602060002090600702016006016040516020016104ef9190610fb0565b6040516020818303038152906040528051906020012060001c145b80156105455750600115156000828154811061052257fe5b906000526020600020906007020160010160009054906101000a900460ff161515145b1561083457600191506000818154811061055b57fe5b90600052602060002090600702016040518060e0016040529081600082015481526020016001820160009054906101000a900460ff16151515158152602001600282018054600181600116156101000203166002900480601f0160208091040260200160405190810160405280929190818152602001828054600181600116156101000203166002900480156106325780601f1061060757610100808354040283529160200191610632565b820191906000526020600020905b81548152906001019060200180831161061557829003601f168201915b50505050508152602001600382018054600181600116156101000203166002900480601f0160208091040260200160405190810160405280929190818152602001828054600181600116156101000203166002900480156106d45780601f106106a9576101008083540402835291602001916106d4565b820191906000526020600020905b8154815290600101906020018083116106b757829003601f168201915b50505050508152602001600482018054600181600116156101000203166002900480601f0160208091040260200160405190810160405280929190818152602001828054600181600116156101000203166002900480156107765780601f1061074b57610100808354040283529160200191610776565b820191906000526020600020905b81548152906001019060200180831161075957829003601f168201915b5050505050815260200160058201548152602001600682018054600181600116156101000203166002900480601f0160208091040260200160405190810160405280929190818152602001828054600181600116156101000203166002900480156108225780601f106107f757610100808354040283529160200191610822565b820191906000526020600020905b81548152906001019060200180831161080557829003601f168201915b5050505050815250509250505061093f565b8080600101915050610397565b5060001515811515141561093d576040518060e00160405280600081526020016000151581526020016040518060400160405280600481526020017f6e756c6c0000000000000000000000000000000000000000000000000000000081525081526020016040518060400160405280600481526020017f6e756c6c0000000000000000000000000000000000000000000000000000000081525081526020016040518060400160405280600481526020017f6e756c6c000000000000000000000000000000000000000000000000000000008152508152602001600081526020016040518060200160405280600081525081525091505061093f565b505b9392505050565b61094e610a97565b610959868685610384565b905060001515816020015115151415610a8f5760006040518060e00160405280600154815260200160011515815260200186815260200188815260200187815260200184815260200185815250908060018154018082558091505090600182039060005260206000209060070201600090919290919091506000820151816000015560208201518160010160006101000a81548160ff0219169083151502179055506040820151816002019080519060200190610a17929190610ad6565b506060820151816003019080519060200190610a34929190610ad6565b506080820151816004019080519060200190610a51929190610ad6565b5060a0820151816005015560c0820151816006019080519060200190610a78929190610ad6565b505050506001600081548092919060010191905055505b505050505050565b6040518060e001604052806000815260200160001515815260200160608152602001606081526020016060815260200160008152602001606081525090565b828054600181600116156101000203166002900490600052602060002090601f016020900481019282601f10610b1757805160ff1916838001178555610b45565b82800160010185558215610b45579182015b82811115610b44578251825591602001919060010190610b29565b5b509050610b529190610b56565b5090565b610b7891905b80821115610b74576000816000905550600101610b5c565b5090565b90565b600082601f830112610b8c57600080fd5b8135610b9f610b9a826110a1565b611074565b91508082526020830160208301858383011115610bbb57600080fd5b610bc683828461113b565b50505092915050565b600081359050610bde8161118e565b92915050565b600080600060608486031215610bf957600080fd5b600084013567ffffffffffffffff811115610c1357600080fd5b610c1f86828701610b7b565b935050602084013567ffffffffffffffff811115610c3c57600080fd5b610c4886828701610b7b565b925050604084013567ffffffffffffffff811115610c6557600080fd5b610c7186828701610b7b565b9150509250925092565b600080600080600060a08688031215610c9357600080fd5b600086013567ffffffffffffffff811115610cad57600080fd5b610cb988828901610b7b565b955050602086013567ffffffffffffffff811115610cd657600080fd5b610ce288828901610b7b565b945050604086013567ffffffffffffffff811115610cff57600080fd5b610d0b88828901610b7b565b935050606086013567ffffffffffffffff811115610d2857600080fd5b610d3488828901610b7b565b9250506080610d4588828901610bcf565b9150509295509295909350565b600060208284031215610d6457600080fd5b6000610d7284828501610bcf565b91505092915050565b610d8481611125565b82525050565b610d9381611125565b82525050565b6000610da4826110ed565b610dae818561111a565b9350610dbe81856020860161114a565b80840191505092915050565b6000610dd5826110e2565b610ddf81856110f8565b9350610def81856020860161114a565b610df88161117d565b840191505092915050565b6000610e0e826110e2565b610e188185611109565b9350610e2881856020860161114a565b610e318161117d565b840191505092915050565b600081546001811660008114610e595760018114610e7e57610ec2565b607f6002830416610e6a818761111a565b955060ff1983168652808601935050610ec2565b60028204610e8c818761111a565b9550610e97856110cd565b60005b82811015610eb957815481890152600182019150602081019050610e9a565b82880195505050505b505092915050565b600060e083016000830151610ee26000860182610f7b565b506020830151610ef56020860182610d7b565b5060408301518482036040860152610f0d8282610dca565b91505060608301518482036060860152610f278282610dca565b91505060808301518482036080860152610f418282610dca565b91505060a0830151610f5660a0860182610f7b565b5060c083015184820360c0860152610f6e8282610dca565b9150508091505092915050565b610f8481611131565b82525050565b610f9381611131565b82525050565b6000610fa58284610d99565b915081905092915050565b6000610fbc8284610e3c565b915081905092915050565b60006020820190508181036000830152610fe18184610eca565b905092915050565b600060e082019050610ffe600083018a610f8a565b61100b6020830189610d8a565b818103604083015261101d8188610e03565b905081810360608301526110318187610e03565b905081810360808301526110458186610e03565b905061105460a0830185610f8a565b81810360c08301526110668184610e03565b905098975050505050505050565b6000604051905081810181811067ffffffffffffffff8211171561109757600080fd5b8060405250919050565b600067ffffffffffffffff8211156110b857600080fd5b601f19601f8301169050602081019050919050565b60008190508160005260206000209050919050565b600081519050919050565b600081519050919050565b600082825260208201905092915050565b600082825260208201905092915050565b600081905092915050565b60008115159050919050565b6000819050919050565b82818337600083830152505050565b60005b8381101561116857808201518184015260208101905061114d565b83811115611177576000848401525b50505050565b6000601f19601f8301169050919050565b61119781611131565b81146111a257600080fd5b5056fea365627a7a72315820240912f761ebc7790c6bc45d40bae9f905598e90af3326439cdeb4fc2bc814a86c6578706572696d656e74616cf564736f6c63430005100040",
  "source": "// SPDX-License-Identifier: MIT\r\npragma solidity ^0.5.16;\r\n\r\npragma experimental ABIEncoderV2;\r\n\r\n/**\r\n * @title Ballot\r\n * @dev Implements voting process along with vote delegation\r\n */\r\ncontract User {\r\n    struct User_Obj {\r\n        uint256 userid;\r\n        bool active;\r\n        string name;\r\n        string username;\r\n        string password;\r\n        uint256 addedOn;\r\n        string _type; //\"a\" admin,\"p\" pharmacy,\"m\" manfiactor\r\n    }\r\n\r\n    User_Obj[] public users;\r\n\r\n    uint256 _userid;\r\n\r\n    constructor() public {\r\n        if (users.length == 0) {\r\n            users.push(\r\n                User_Obj({\r\n                    userid: 0,\r\n                    active: true,\r\n                    name: \"null\",\r\n                    username: \"admin\",\r\n                    password: \"admin\",\r\n                    _type:\"a\",\r\n                    addedOn:0\r\n                })\r\n            );\r\n            _userid = 1;\r\n        }\r\n    }\r\n\r\n    function login(string memory username, string memory password,string memory typ)\r\n        public\r\n        view\r\n        returns (User_Obj memory user)\r\n    {\r\n        bool find = false;\r\n        for (uint256 i = 0; i < users.length; i++) {\r\n            if (\r\n                uint256(keccak256(abi.encodePacked((users[i].username)))) ==\r\n                uint256(keccak256(abi.encodePacked((username)))) &&\r\n                uint256(keccak256(abi.encodePacked((users[i].password)))) ==\r\n                uint256(keccak256(abi.encodePacked((password)))) &&\r\n                uint256(keccak256(abi.encodePacked((users[i]._type)))) ==\r\n                uint256(keccak256(abi.encodePacked((typ)))) &&\r\n                users[i].active == true\r\n            ) {\r\n                find = true;\r\n                return users[i];\r\n            }\r\n        }\r\n\r\n        if (find == false)\r\n            return\r\n                User_Obj({\r\n                    userid: 0,\r\n                    active: false,\r\n                    name: \"null\",\r\n                    username: \"null\",\r\n                    password: \"null\",\r\n                    addedOn:0,\r\n                    _type:\"\"\r\n                });\r\n    }\r\n\r\n    function regiter(\r\n        string memory username,\r\n        string memory password,\r\n        string memory name,\r\n        string memory typ,\r\n        uint256 add\r\n    ) public {\r\n        User_Obj memory user = login(username, password,typ);\r\n        if (user.active == false) {\r\n            users.push(\r\n                User_Obj({\r\n                    userid: _userid,\r\n                    active: true,\r\n                    name: name,\r\n                    username: username,\r\n                    password: password,\r\n                    _type:typ,\r\n                    addedOn:add\r\n                })\r\n            );\r\n            _userid++;\r\n        }\r\n    }\r\n}\r\n",
  "sourcePath": "D:/Projects/GP/contracts/User.sol",
  "compiler": {
    "name": "solc",
    "version": "0.5.16+commit.9c3226ce.Emscripten.clang"
  },
  "schemaVersion": "3.4.1",
  "updatedAt": "2021-05-26T21:17:15.263Z",
  "devdoc": {
    "details": "Implements voting process along with vote delegation",
    "methods": {},
    "title": "Ballot"
  },
  "userdoc": {
    "methods": {}
  }
}